{
  "contractName": "Gambling",
  "abi": [
    {
      "inputs": [],
      "payable": false,
      "stateMutability": "nonpayable",
      "type": "constructor"
    },
    {
      "anonymous": false,
      "inputs": [
        {
          "indexed": false,
          "internalType": "uint256",
          "name": "size",
          "type": "uint256"
        }
      ],
      "name": "DepositSent",
      "type": "event"
    },
    {
      "anonymous": false,
      "inputs": [
        {
          "indexed": false,
          "internalType": "string",
          "name": "queryRequested",
          "type": "string"
        }
      ],
      "name": "LogNewProvableQuery",
      "type": "event"
    },
    {
      "anonymous": false,
      "inputs": [
        {
          "indexed": false,
          "internalType": "string",
          "name": "result",
          "type": "string"
        }
      ],
      "name": "flipResult",
      "type": "event"
    },
    {
      "anonymous": false,
      "inputs": [
        {
          "indexed": false,
          "internalType": "uint256",
          "name": "randomNumber",
          "type": "uint256"
        }
      ],
      "name": "generatedRandomNumber",
      "type": "event"
    },
    {
      "constant": true,
      "inputs": [],
      "name": "balance",
      "outputs": [
        {
          "internalType": "uint256",
          "name": "",
          "type": "uint256"
        }
      ],
      "payable": false,
      "stateMutability": "view",
      "type": "function"
    },
    {
      "constant": true,
      "inputs": [
        {
          "internalType": "address",
          "name": "",
          "type": "address"
        }
      ],
      "name": "betting",
      "outputs": [
        {
          "internalType": "address payable",
          "name": "playerAddress",
          "type": "address"
        },
        {
          "internalType": "uint256",
          "name": "side",
          "type": "uint256"
        },
        {
          "internalType": "uint256",
          "name": "userBallance",
          "type": "uint256"
        },
        {
          "internalType": "uint256",
          "name": "size",
          "type": "uint256"
        },
        {
          "internalType": "bool",
          "name": "inGame",
          "type": "bool"
        },
        {
          "internalType": "bool",
          "name": "isItWins",
          "type": "bool"
        },
        {
          "internalType": "uint256",
          "name": "ranNubber",
          "type": "uint256"
        }
      ],
      "payable": false,
      "stateMutability": "view",
      "type": "function"
    },
    {
      "constant": true,
      "inputs": [
        {
          "internalType": "bytes32",
          "name": "",
          "type": "bytes32"
        }
      ],
      "name": "player",
      "outputs": [
        {
          "internalType": "bytes32",
          "name": "id",
          "type": "bytes32"
        },
        {
          "internalType": "address",
          "name": "playerAddress",
          "type": "address"
        }
      ],
      "payable": false,
      "stateMutability": "view",
      "type": "function"
    },
    {
      "constant": false,
      "inputs": [
        {
          "internalType": "uint256",
          "name": "size",
          "type": "uint256"
        },
        {
          "internalType": "uint256",
          "name": "side",
          "type": "uint256"
        }
      ],
      "name": "flip",
      "outputs": [],
      "payable": true,
      "stateMutability": "payable",
      "type": "function"
    },
    {
      "constant": false,
      "inputs": [],
      "name": "update",
      "outputs": [],
      "payable": true,
      "stateMutability": "payable",
      "type": "function"
    },
    {
      "constant": false,
      "inputs": [
        {
          "internalType": "bytes32",
          "name": "_queryId",
          "type": "bytes32"
        },
        {
          "internalType": "string",
          "name": "_result",
          "type": "string"
        },
        {
          "internalType": "bytes",
          "name": "_proof",
          "type": "bytes"
        }
      ],
      "name": "__callback",
      "outputs": [],
      "payable": false,
      "stateMutability": "nonpayable",
      "type": "function"
    },
    {
      "constant": false,
      "inputs": [
        {
          "internalType": "bytes32",
          "name": "_myid",
          "type": "bytes32"
        },
        {
          "internalType": "string",
          "name": "_result",
          "type": "string"
        }
      ],
      "name": "__callback",
      "outputs": [],
      "payable": false,
      "stateMutability": "nonpayable",
      "type": "function"
    },
    {
      "constant": false,
      "inputs": [],
      "name": "withdrawAll",
      "outputs": [
        {
          "internalType": "uint256",
          "name": "",
          "type": "uint256"
        }
      ],
      "payable": true,
      "stateMutability": "payable",
      "type": "function"
    },
    {
      "constant": false,
      "inputs": [
        {
          "internalType": "uint256",
          "name": "ss",
          "type": "uint256"
        }
      ],
      "name": "fundContract",
      "outputs": [
        {
          "internalType": "uint256",
          "name": "",
          "type": "uint256"
        }
      ],
      "payable": true,
      "stateMutability": "payable",
      "type": "function"
    },
    {
      "constant": false,
      "inputs": [
        {
          "internalType": "uint256",
          "name": "addedmoney",
          "type": "uint256"
        }
      ],
      "name": "depositM",
      "outputs": [],
      "payable": true,
      "stateMutability": "payable",
      "type": "function"
    },
    {
      "constant": true,
      "inputs": [],
      "name": "getMoney",
      "outputs": [
        {
          "internalType": "uint256",
          "name": "",
          "type": "uint256"
        }
      ],
      "payable": false,
      "stateMutability": "view",
      "type": "function"
    },
    {
      "constant": false,
      "inputs": [],
      "name": "witrowpublicmoney",
      "outputs": [],
      "payable": true,
      "stateMutability": "payable",
      "type": "function"
    },
    {
      "constant": true,
      "inputs": [],
      "name": "isItWinning",
      "outputs": [
        {
          "internalType": "bool",
          "name": "",
          "type": "bool"
        }
      ],
      "payable": false,
      "stateMutability": "view",
      "type": "function"
    },
    {
      "constant": true,
      "inputs": [],
      "name": "ContractBallanse",
      "outputs": [
        {
          "internalType": "uint256",
          "name": "",
          "type": "uint256"
        }
      ],
      "payable": false,
      "stateMutability": "view",
      "type": "function"
    },
    {
      "constant": true,
      "inputs": [],
      "name": "getAddress",
      "outputs": [
        {
          "internalType": "address",
          "name": "",
          "type": "address"
        }
      ],
      "payable": false,
      "stateMutability": "view",
      "type": "function"
    },
    {
      "constant": false,
      "inputs": [],
      "name": "withdrawl50",
      "outputs": [],
      "payable": false,
      "stateMutability": "nonpayable",
      "type": "function"
    },
    {
      "constant": false,
      "inputs": [],
      "name": "destToy",
      "outputs": [],
      "payable": false,
      "stateMutability": "nonpayable",
      "type": "function"
    },
    {
      "constant": true,
      "inputs": [],
      "name": "getRndom",
      "outputs": [
        {
          "internalType": "uint256",
          "name": "",
          "type": "uint256"
        }
      ],
      "payable": false,
      "stateMutability": "view",
      "type": "function"
    }
  ],
  "bytecode": "0x60806040523480156200001157600080fd5b50336000806101000a81548173ffffffffffffffffffffffffffffffffffffffff021916908373ffffffffffffffffffffffffffffffffffffffff16021790555062000067603060f81b6200006d60201b60201c565b62000a91565b600073ffffffffffffffffffffffffffffffffffffffff16600260009054906101000a900473ffffffffffffffffffffffffffffffffffffffff1673ffffffffffffffffffffffffffffffffffffffff161480620000fd57506000620000fb600260009054906101000a900473ffffffffffffffffffffffffffffffffffffffff16620003d360201b60201c565b145b156200011757620001156000620003de60201b60201c565b505b600260009054906101000a900473ffffffffffffffffffffffffffffffffffffffff1673ffffffffffffffffffffffffffffffffffffffff166338cc48316040518163ffffffff1660e01b8152600401602060405180830381600087803b1580156200018257600080fd5b505af115801562000197573d6000803e3d6000fd5b505050506040513d6020811015620001ae57600080fd5b810190808051906020019092919050505073ffffffffffffffffffffffffffffffffffffffff16600160009054906101000a900473ffffffffffffffffffffffffffffffffffffffff1673ffffffffffffffffffffffffffffffffffffffff1614620002fd57600260009054906101000a900473ffffffffffffffffffffffffffffffffffffffff1673ffffffffffffffffffffffffffffffffffffffff166338cc48316040518163ffffffff1660e01b8152600401602060405180830381600087803b1580156200027f57600080fd5b505af115801562000294573d6000803e3d6000fd5b505050506040513d6020811015620002ab57600080fd5b8101908080519060200190929190505050600160006101000a81548173ffffffffffffffffffffffffffffffffffffffff021916908373ffffffffffffffffffffffffffffffffffffffff1602179055505b600160009054906101000a900473ffffffffffffffffffffffffffffffffffffffff1673ffffffffffffffffffffffffffffffffffffffff1663688dcfd7826040518263ffffffff1660e01b815260040180827effffffffffffffffffffffffffffffffffffffffffffffffffffffffffffff19167effffffffffffffffffffffffffffffffffffffffffffffffffffffffffffff19168152602001915050600060405180830381600087803b158015620003b757600080fd5b505af1158015620003cc573d6000803e3d6000fd5b5050505050565b6000813b9050919050565b6000620003f0620003f760201b60201c565b9050919050565b6000806200041f731d3b2638a7cc9f2cb3d298a3da7a90b67e5506ed620003d360201b60201c565b1115620004cb57731d3b2638a7cc9f2cb3d298a3da7a90b67e5506ed600260006101000a81548173ffffffffffffffffffffffffffffffffffffffff021916908373ffffffffffffffffffffffffffffffffffffffff160217905550620004c16040518060400160405280600b81526020017f6574685f6d61696e6e6574000000000000000000000000000000000000000000815250620009c660201b60201c565b60019050620009c3565b6000620004f273c03a2615d5efaf5f49f60b7bb6583eaec212fdf1620003d360201b60201c565b11156200059e5773c03a2615d5efaf5f49f60b7bb6583eaec212fdf1600260006101000a81548173ffffffffffffffffffffffffffffffffffffffff021916908373ffffffffffffffffffffffffffffffffffffffff160217905550620005946040518060400160405280600c81526020017f6574685f726f707374656e330000000000000000000000000000000000000000815250620009c660201b60201c565b60019050620009c3565b6000620005c573b7a07bcf2ba2f2703b24c0691b5278999c59ac7e620003d360201b60201c565b1115620006715773b7a07bcf2ba2f2703b24c0691b5278999c59ac7e600260006101000a81548173ffffffffffffffffffffffffffffffffffffffff021916908373ffffffffffffffffffffffffffffffffffffffff160217905550620006676040518060400160405280600981526020017f6574685f6b6f76616e0000000000000000000000000000000000000000000000815250620009c660201b60201c565b60019050620009c3565b60006200069873146500cfd35b22e4a392fe0adc06de1a1368ed48620003d360201b60201c565b1115620007445773146500cfd35b22e4a392fe0adc06de1a1368ed48600260006101000a81548173ffffffffffffffffffffffffffffffffffffffff021916908373ffffffffffffffffffffffffffffffffffffffff1602179055506200073a6040518060400160405280600b81526020017f6574685f72696e6b656279000000000000000000000000000000000000000000815250620009c660201b60201c565b60019050620009c3565b60006200076b73a2998efd205fb9d4b4963afb70778d6354ad3a41620003d360201b60201c565b1115620008175773a2998efd205fb9d4b4963afb70778d6354ad3a41600260006101000a81548173ffffffffffffffffffffffffffffffffffffffff021916908373ffffffffffffffffffffffffffffffffffffffff1602179055506200080d6040518060400160405280600a81526020017f6574685f676f65726c6900000000000000000000000000000000000000000000815250620009c660201b60201c565b60019050620009c3565b60006200083e736f485c8bf6fc43ea212e93bbf8ce046c7f1cb475620003d360201b60201c565b1115620008a457736f485c8bf6fc43ea212e93bbf8ce046c7f1cb475600260006101000a81548173ffffffffffffffffffffffffffffffffffffffff021916908373ffffffffffffffffffffffffffffffffffffffff16021790555060019050620009c3565b6000620008cb7320e12a1f859b3feae5fb2a0a32c18f5a65555bbf620003d360201b60201c565b111562000931577320e12a1f859b3feae5fb2a0a32c18f5a65555bbf600260006101000a81548173ffffffffffffffffffffffffffffffffffffffff021916908373ffffffffffffffffffffffffffffffffffffffff16021790555060019050620009c3565b6000620009587351efaf4c8b3c9afbd5ab9f4bbc82784ab6ef8faa620003d360201b60201c565b1115620009be577351efaf4c8b3c9afbd5ab9f4bbc82784ab6ef8faa600260006101000a81548173ffffffffffffffffffffffffffffffffffffffff021916908373ffffffffffffffffffffffffffffffffffffffff16021790555060019050620009c3565b600090505b90565b8060039080519060200190620009de929190620009e2565b5050565b828054600181600116156101000203166002900490600052602060002090601f016020900481019282601f1062000a2557805160ff191683800117855562000a56565b8280016001018555821562000a56579182015b8281111562000a5557825182559160200191906001019062000a38565b5b50905062000a65919062000a69565b5090565b62000a8e91905b8082111562000a8a57600081600090555060010162000a70565b5090565b90565b614ae18062000aa16000396000f3fe6080604052600436106101095760003560e01c80634c2fa8ad11610095578063a2e6204511610064578063a2e620451461063a578063b1b56fc614610644578063b69ef8a81461064e578063e095615a14610679578063e6f959171461069057610109565b80634c2fa8ad146105035780634e0585ec1461052e578063853828b6146105f157806398e1b4101461060f57610109565b806330b57b1e116100dc57806330b57b1e146102505780633519a2f8146102d257806338bbfa501461031457806338cc48311461047d578063399d2671146104d457610109565b80630a88fb4b1461010e5780630e2295531461012557806327dc297e146101535780632c37205814610225575b600080fd5b34801561011a57600080fd5b506101236106c8565b005b6101516004803603602081101561013b57600080fd5b810190808035906020019092919050505061078f565b005b34801561015f57600080fd5b506102236004803603604081101561017657600080fd5b81019080803590602001909291908035906020019064010000000081111561019d57600080fd5b8201836020820111156101af57600080fd5b803590602001918460018302840111640100000000831117156101d157600080fd5b91908080601f016020809104026020016040519081016040528093929190818152602001838380828437600081840152601f19601f82011690508083019250505050505050919291929050505061088d565b005b34801561023157600080fd5b5061023a6108d0565b6040518082815260200191505060405180910390f35b34801561025c57600080fd5b506102896004803603602081101561027357600080fd5b810190808035906020019092919050505061091f565b604051808381526020018273ffffffffffffffffffffffffffffffffffffffff1673ffffffffffffffffffffffffffffffffffffffff1681526020019250505060405180910390f35b6102fe600480360360208110156102e857600080fd5b8101908080359060200190929190505050610963565b6040518082815260200191505060405180910390f35b34801561032057600080fd5b5061047b6004803603606081101561033757600080fd5b81019080803590602001909291908035906020019064010000000081111561035e57600080fd5b82018360208201111561037057600080fd5b8035906020019184600183028401116401000000008311171561039257600080fd5b91908080601f016020809104026020016040519081016040528093929190818152602001838380828437600081840152601f19601f820116905080830192505050505050509192919290803590602001906401000000008111156103f557600080fd5b82018360208201111561040757600080fd5b8035906020019184600183028401116401000000008311171561042957600080fd5b91908080601f016020809104026020016040519081016040528093929190818152602001838380828437600081840152601f19601f820116905080830192505050505050509192919290505050610a01565b005b34801561048957600080fd5b50610492610b25565b604051808273ffffffffffffffffffffffffffffffffffffffff1673ffffffffffffffffffffffffffffffffffffffff16815260200191505060405180910390f35b3480156104e057600080fd5b506104e9610b94565b604051808215151515815260200191505060405180910390f35b34801561050f57600080fd5b50610518610beb565b6040518082815260200191505060405180910390f35b34801561053a57600080fd5b5061057d6004803603602081101561055157600080fd5b81019080803573ffffffffffffffffffffffffffffffffffffffff169060200190929190505050610c63565b604051808873ffffffffffffffffffffffffffffffffffffffff1673ffffffffffffffffffffffffffffffffffffffff168152602001878152602001868152602001858152602001841515151581526020018315151515815260200182815260200197505050505050505060405180910390f35b6105f9610cdf565b6040518082815260200191505060405180910390f35b34801561061b57600080fd5b50610624610dd6565b6040518082815260200191505060405180910390f35b610642610e20565b005b61064c610efd565b005b34801561065a57600080fd5b50610663610fdc565b6040518082815260200191505060405180910390f35b34801561068557600080fd5b5061068e610fe2565b005b6106c6600480360360408110156106a657600080fd5b810190808035906020019092919080359060200190929190505050611059565b005b3373ffffffffffffffffffffffffffffffffffffffff166000809054906101000a900473ffffffffffffffffffffffffffffffffffffffff1673ffffffffffffffffffffffffffffffffffffffff161461072157600080fd5b600060026006548161072f57fe5b04905060026006548161073e57fe5b046006819055503373ffffffffffffffffffffffffffffffffffffffff166108fc829081150290604051600060405180830381858888f1935050505015801561078b573d6000803e3d6000fd5b5050565b6000339050662386f26fc10000820234146107a957600080fd5b662386f26fc10000820234146107be57600080fd5b662386f26fc100008202600760008373ffffffffffffffffffffffffffffffffffffffff1673ffffffffffffffffffffffffffffffffffffffff1681526020019081526020016000206002015401600760008373ffffffffffffffffffffffffffffffffffffffff1673ffffffffffffffffffffffffffffffffffffffff168152602001908152602001600020600201819055507f9726db642f7d4974aac63ad41d633d2b84756e3a9532a9c37f4e710c7018974f826040518082815260200191505060405180910390a15050565b6108cc828260006040519080825280601f01601f1916602001820160405280156108c65781602001600182028038833980820191505090505b50610a01565b5050565b600080339050600760008273ffffffffffffffffffffffffffffffffffffffff1673ffffffffffffffffffffffffffffffffffffffff1681526020019081526020016000206005015491505090565b60086020528060005260406000206000915090508060000154908060010160009054906101000a900473ffffffffffffffffffffffffffffffffffffffff16905082565b60003373ffffffffffffffffffffffffffffffffffffffff166000809054906101000a900473ffffffffffffffffffffffffffffffffffffffff1673ffffffffffffffffffffffffffffffffffffffff16146109be57600080fd5b662386f26fc10000820234146109d357600080fd5b662386f26fc10000820234146109e857600080fd5b662386f26fc10000820260065401600681905550919050565b6000610a0e84848461136d565b60ff1614610a1b57610b20565b610a2361149d565b73ffffffffffffffffffffffffffffffffffffffff163373ffffffffffffffffffffffffffffffffffffffff1614610a5a57600080fd5b60006002836040516020018082805190602001908083835b60208310610a955780518252602082019150602081019050602083039250610a72565b6001836020036101000a0380198251168184511680821785525050505050509050019150506040516020818303038152906040528051906020012060001c81610ada57fe5b069050610ae781856117bd565b7fc13d60fe9dffdb6908d2d446cd18134373a51db0738ee04f296eeb9128121cbc816040518082815260200191505060405180910390a1505b505050565b600080339050600760008273ffffffffffffffffffffffffffffffffffffffff1673ffffffffffffffffffffffffffffffffffffffff16815260200190815260200160002060000160009054906101000a900473ffffffffffffffffffffffffffffffffffffffff1691505090565b6000600760003373ffffffffffffffffffffffffffffffffffffffff1673ffffffffffffffffffffffffffffffffffffffff16815260200190815260200160002060040160019054906101000a900460ff16905090565b60003373ffffffffffffffffffffffffffffffffffffffff166000809054906101000a900473ffffffffffffffffffffffffffffffffffffffff1673ffffffffffffffffffffffffffffffffffffffff1614610c4657600080fd5b3073ffffffffffffffffffffffffffffffffffffffff1631905090565b60076020528060005260406000206000915090508060000160009054906101000a900473ffffffffffffffffffffffffffffffffffffffff16908060010154908060020154908060030154908060040160009054906101000a900460ff16908060040160019054906101000a900460ff16908060050154905087565b60003373ffffffffffffffffffffffffffffffffffffffff166000809054906101000a900473ffffffffffffffffffffffffffffffffffffffff1673ffffffffffffffffffffffffffffffffffffffff1614610d3a57600080fd5b3373ffffffffffffffffffffffffffffffffffffffff166108fc3073ffffffffffffffffffffffffffffffffffffffff16319081150290604051600060405180830381858888f19350505050158015610d97573d6000803e3d6000fd5b5060003073ffffffffffffffffffffffffffffffffffffffff163114610db957fe5b3073ffffffffffffffffffffffffffffffffffffffff1631905090565b6000600760003373ffffffffffffffffffffffffffffffffffffffff1673ffffffffffffffffffffffffffffffffffffffff16815260200190815260200160002060020154905090565b6000809050600062030d4090506000610e3b83600184611f68565b9050806008600083815260200190815260200160002060000181905550336008600083815260200190815260200160002060010160006101000a81548173ffffffffffffffffffffffffffffffffffffffff021916908373ffffffffffffffffffffffffffffffffffffffff1602179055507fc4dc360d0a9c0677a3379ae0a3d81e887f761e65fdf3d7e00859d1bcd3c47389604051808060200182810382526031815260200180614a076031913960400191505060405180910390a1505050565b60003390506000600760008373ffffffffffffffffffffffffffffffffffffffff1673ffffffffffffffffffffffffffffffffffffffff1681526020019081526020016000206002015490506000600760008473ffffffffffffffffffffffffffffffffffffffff1673ffffffffffffffffffffffffffffffffffffffff168152602001908152602001600020600201819055503373ffffffffffffffffffffffffffffffffffffffff166108fc829081150290604051600060405180830381858888f19350505050158015610fd7573d6000803e3d6000fd5b505050565b60065481565b3373ffffffffffffffffffffffffffffffffffffffff166000809054906101000a900473ffffffffffffffffffffffffffffffffffffffff1673ffffffffffffffffffffffffffffffffffffffff161461103b57600080fd5b60003390508073ffffffffffffffffffffffffffffffffffffffff16ff5b600760003373ffffffffffffffffffffffffffffffffffffffff1673ffffffffffffffffffffffffffffffffffffffff168152602001908152602001600020600201548211156110a857600080fd5b60001515600760003373ffffffffffffffffffffffffffffffffffffffff1673ffffffffffffffffffffffffffffffffffffffff16815260200190815260200160002060040160009054906101000a900460ff16151514611154576040517f08c379a0000000000000000000000000000000000000000000000000000000008152600401808060200182810382526035815260200180614a786035913960400191505060405180910390fd5b33600760003373ffffffffffffffffffffffffffffffffffffffff1673ffffffffffffffffffffffffffffffffffffffff16815260200190815260200160002060000160006101000a81548173ffffffffffffffffffffffffffffffffffffffff021916908373ffffffffffffffffffffffffffffffffffffffff16021790555080600760003373ffffffffffffffffffffffffffffffffffffffff1673ffffffffffffffffffffffffffffffffffffffff1681526020019081526020016000206001018190555081600760003373ffffffffffffffffffffffffffffffffffffffff1673ffffffffffffffffffffffffffffffffffffffff168152602001908152602001600020600301819055506001600760003373ffffffffffffffffffffffffffffffffffffffff1673ffffffffffffffffffffffffffffffffffffffff16815260200190815260200160002060040160006101000a81548160ff0219169083151502179055506000600760003373ffffffffffffffffffffffffffffffffffffffff1673ffffffffffffffffffffffffffffffffffffffff16815260200190815260200160002060040160016101000a81548160ff0219169083151502179055506000600760003373ffffffffffffffffffffffffffffffffffffffff1673ffffffffffffffffffffffffffffffffffffffff16815260200190815260200160002060050181905550611369610e20565b5050565b60007f4c000000000000000000000000000000000000000000000000000000000000008260008151811061139d57fe5b602001015160f81c60f81b7effffffffffffffffffffffffffffffffffffffffffffffffffffffffffffff191614158061143057507f50000000000000000000000000000000000000000000000000000000000000008260018151811061140057fe5b602001015160f81c60f81b7effffffffffffffffffffffffffffffffffffffffffffffffffffffffffffff191614155b8061145c5750600160ff168260028151811061144857fe5b602001015160f81c60f81b60f81c60ff1614155b1561146a5760019050611496565b600061147f83868661147a612503565b6125a5565b905080611490576002915050611496565b60009150505b9392505050565b60008073ffffffffffffffffffffffffffffffffffffffff16600260009054906101000a900473ffffffffffffffffffffffffffffffffffffffff1673ffffffffffffffffffffffffffffffffffffffff16148061152557506000611523600260009054906101000a900473ffffffffffffffffffffffffffffffffffffffff16612c50565b145b15611536576115346000612c5b565b505b600260009054906101000a900473ffffffffffffffffffffffffffffffffffffffff1673ffffffffffffffffffffffffffffffffffffffff166338cc48316040518163ffffffff1660e01b8152600401602060405180830381600087803b1580156115a057600080fd5b505af11580156115b4573d6000803e3d6000fd5b505050506040513d60208110156115ca57600080fd5b810190808051906020019092919050505073ffffffffffffffffffffffffffffffffffffffff16600160009054906101000a900473ffffffffffffffffffffffffffffffffffffffff1673ffffffffffffffffffffffffffffffffffffffff161461171557600260009054906101000a900473ffffffffffffffffffffffffffffffffffffffff1673ffffffffffffffffffffffffffffffffffffffff166338cc48316040518163ffffffff1660e01b8152600401602060405180830381600087803b15801561169957600080fd5b505af11580156116ad573d6000803e3d6000fd5b505050506040513d60208110156116c357600080fd5b8101908080519060200190929190505050600160006101000a81548173ffffffffffffffffffffffffffffffffffffffff021916908373ffffffffffffffffffffffffffffffffffffffff1602179055505b600160009054906101000a900473ffffffffffffffffffffffffffffffffffffffff1673ffffffffffffffffffffffffffffffffffffffff1663c281d19e6040518163ffffffff1660e01b815260040160206040518083038186803b15801561177d57600080fd5b505afa158015611791573d6000803e3d6000fd5b505050506040513d60208110156117a757600080fd5b8101908080519060200190929190505050905090565b600760006008600084815260200190815260200160002060010160009054906101000a900473ffffffffffffffffffffffffffffffffffffffff1673ffffffffffffffffffffffffffffffffffffffff1673ffffffffffffffffffffffffffffffffffffffff16815260200190815260200160002060010154821415611bc4576002662386f26fc10000600760006008600086815260200190815260200160002060010160009054906101000a900473ffffffffffffffffffffffffffffffffffffffff1673ffffffffffffffffffffffffffffffffffffffff1673ffffffffffffffffffffffffffffffffffffffff168152602001908152602001600020600301540202600760006008600085815260200190815260200160002060010160009054906101000a900473ffffffffffffffffffffffffffffffffffffffff1673ffffffffffffffffffffffffffffffffffffffff1673ffffffffffffffffffffffffffffffffffffffff1681526020019081526020016000206002015401600760006008600085815260200190815260200160002060010160009054906101000a900473ffffffffffffffffffffffffffffffffffffffff1673ffffffffffffffffffffffffffffffffffffffff1673ffffffffffffffffffffffffffffffffffffffff16815260200190815260200160002060020181905550662386f26fc10000600760006008600085815260200190815260200160002060010160009054906101000a900473ffffffffffffffffffffffffffffffffffffffff1673ffffffffffffffffffffffffffffffffffffffff1673ffffffffffffffffffffffffffffffffffffffff16815260200190815260200160002060030154026006600082825403925050819055506001600760006008600085815260200190815260200160002060010160009054906101000a900473ffffffffffffffffffffffffffffffffffffffff1673ffffffffffffffffffffffffffffffffffffffff1673ffffffffffffffffffffffffffffffffffffffff16815260200190815260200160002060040160016101000a81548160ff02191690831515021790555081600760006008600085815260200190815260200160002060010160009054906101000a900473ffffffffffffffffffffffffffffffffffffffff1673ffffffffffffffffffffffffffffffffffffffff1673ffffffffffffffffffffffffffffffffffffffff168152602001908152602001600020600501819055507f8a29594c7999d92a07a2010ce9bad6e2248fe23beb9cbf315e702771e73d28276040518080602001828103825260038152602001807f776f6e000000000000000000000000000000000000000000000000000000000081525060200191505060405180910390a1611ed3565b662386f26fc10000600760006008600085815260200190815260200160002060010160009054906101000a900473ffffffffffffffffffffffffffffffffffffffff1673ffffffffffffffffffffffffffffffffffffffff1673ffffffffffffffffffffffffffffffffffffffff1681526020019081526020016000206003015402600760006008600085815260200190815260200160002060010160009054906101000a900473ffffffffffffffffffffffffffffffffffffffff1673ffffffffffffffffffffffffffffffffffffffff1673ffffffffffffffffffffffffffffffffffffffff16815260200190815260200160002060020160008282540392505081905550662386f26fc10000600760006008600085815260200190815260200160002060010160009054906101000a900473ffffffffffffffffffffffffffffffffffffffff1673ffffffffffffffffffffffffffffffffffffffff1673ffffffffffffffffffffffffffffffffffffffff16815260200190815260200160002060030154026006600082825401925050819055506000600760006008600085815260200190815260200160002060010160009054906101000a900473ffffffffffffffffffffffffffffffffffffffff1673ffffffffffffffffffffffffffffffffffffffff1673ffffffffffffffffffffffffffffffffffffffff16815260200190815260200160002060040160016101000a81548160ff02191690831515021790555081600760006008600085815260200190815260200160002060010160009054906101000a900473ffffffffffffffffffffffffffffffffffffffff1673ffffffffffffffffffffffffffffffffffffffff1673ffffffffffffffffffffffffffffffffffffffff168152602001908152602001600020600501819055507f8a29594c7999d92a07a2010ce9bad6e2248fe23beb9cbf315e702771e73d28276040518080602001828103825260048152602001807f6c6f73740000000000000000000000000000000000000000000000000000000081525060200191505060405180910390a15b6000600760006008600085815260200190815260200160002060010160009054906101000a900473ffffffffffffffffffffffffffffffffffffffff1673ffffffffffffffffffffffffffffffffffffffff1673ffffffffffffffffffffffffffffffffffffffff16815260200190815260200160002060040160006101000a81548160ff0219169083151502179055505050565b60008083118015611f7a575060208311155b611f8357600080fd5b600a84029350606060016040519080825280601f01601f191660200182016040528015611fbf5781602001600182028038833980820191505090505b5090508360f81b81600081518110611fd357fe5b60200101907effffffffffffffffffffffffffffffffffffffffffffffffffffffffffffff1916908160001a905350606060206040519080825280601f01601f1916602001820160405280156120385781602001600182028038833980820191505090505b509050606060206040519080825280601f01601f1916602001820160405280156120715781602001600182028038833980820191505090505b509050600061207e612c6c565b905060208352424118600143034018602084015260208252806020830152606060206040519080825280601f01601f1916602001820160405280156120d25781602001600182028038833980820191505090505b509050886020820152606060086040519080825280601f01601f1916602001820160405280156121115781602001600182028038833980820191505090505b5090506121248260186008846000612f8c565b5061212d614920565b604051806080016040528087815260200188815260200186815260200184815250905060006121926040518060400160405280600681526020017f72616e646f6d0000000000000000000000000000000000000000000000000000815250838c612feb565b9050606060086040519080825280601f01601f1916602001820160405280156121ca5781602001600182028038833980820191505090505b50905060208401517f0100000000000000000000000000000000000000000000000000000000000000810460278301537e01000000000000000000000000000000000000000000000000000000000000810460268301537d010000000000000000000000000000000000000000000000000000000000810460258301537c0100000000000000000000000000000000000000000000000000000000810460248301537b01000000000000000000000000000000000000000000000000000000810460238301537a0100000000000000000000000000000000000000000000000000008104602283015379010000000000000000000000000000000000000000000000000081046021830153780100000000000000000000000000000000000000000000000081046020830153506124f082828560016004811061230957fe5b602002015160028760006004811061231d57fe5b60200201516040518082805190602001908083835b602083106123555780518252602082019150602081019050602083039250612332565b6001836020036101000a038019825116818451168082178552505050505050905001915050602060405180830381855afa158015612397573d6000803e3d6000fd5b5050506040513d60208110156123ac57600080fd5b8101908080519060200190929190505050876002600481106123ca57fe5b60200201516040516020018085805190602001908083835b6020831061240557805182526020820191506020810190506020830392506123e2565b6001836020036101000a03801982511681845116808217855250505050505090500184805190602001908083835b602083106124565780518252602082019150602081019050602083039250612433565b6001836020036101000a03801982511681845116808217855250505050505090500183815260200182805190602001908083835b602083106124ad578051825260208201915060208101905060208303925061248a565b6001836020036101000a0380198251168184511680821785525050505050509050019450505050506040516020818303038152906040528051906020012061335a565b8199505050505050505050509392505050565b606060038054600181600116156101000203166002900480601f01602080910402602001604051908101604052809291908181526020018280546001816001161561010002031660029004801561259b5780601f106125705761010080835404028352916020019161259b565b820191906000526020600020905b81548152906001019060200180831161257e57829003601f168201915b5050505050905090565b60008060206002876045815181106125b957fe5b602001015160f81c60f81b60f81c60ff1601604401019050606060206040519080825280601f01601f1916602001820160405280156126075781602001600182028038833980820191505090505b50905061261987836020846000612f8c565b50600284876040516020018083805190602001908083835b602083106126545780518252602082019150602081019050602083039250612631565b6001836020036101000a038019825116818451168082178552505050505050905001828152602001925050506040516020818303038152906040526040518082805190602001908083835b602083106126c2578051825260208201915060208101905060208303925061269f565b6001836020036101000a038019825116818451168082178552505050505050905001915050602060405180830381855afa158015612704573d6000803e3d6000fd5b5050506040513d602081101561271957600080fd5b8101908080519060200190929190505050604051602001808281526020019150506040516020818303038152906040528051906020012081805190602001201461276857600092505050612c48565b6060600288600160498601018151811061277e57fe5b602001015160f81c60f81b60f81c60ff16016040519080825280601f01601f1916602001820160405280156127c25781602001600182028038833980820191505090505b5090506127d788604985018351846000612f8c565b506128a26002826040518082805190602001908083835b6020831061281157805182526020820191506020810190506020830392506127ee565b6001836020036101000a038019825116818451168082178552505050505050905001915050602060405180830381855afa158015612853573d6000803e3d6000fd5b5050506040513d602081101561286857600080fd5b8101908080519060200190929190505050878a600860208801018151811061288c57fe5b602001015160f81c60f81b60f81c60ff16613376565b6128b25760009350505050612c48565b606060296040519080825280601f01601f1916602001820160405280156128e85781602001600182028038833980820191505090505b5090506128fd89602086016029846000612f8c565b506060604080519080825280601f01601f1916602001820160405280156129335781602001600182028038833980820191505090505b50905060006041845160296020890101010190506129598b604083036040856000612f8c565b5060006002836040518082805190602001908083835b60208310612992578051825260208201915060208101905060208303925061296f565b6001836020036101000a038019825116818451168082178552505050505050905001915050602060405180830381855afa1580156129d4573d6000803e3d6000fd5b5050506040513d60208110156129e957600080fd5b8101908080519060200190929190505050905083816040516020018083805190602001908083835b60208310612a345780518252602082019150602081019050602083039250612a11565b6001836020036101000a0380198251168184511680821785525050505050509050018281526020019250505060405160208183030381529060405280519060200120600460008d8152602001908152602001600020541415612aac57600460008c815260200190815260200160002060009055612abc565b6000975050505050505050612c48565b606060496040519080825280601f01601f191660200182016040528015612af25781602001600182028038833980820191505090505b509050612b048d896049846000612f8c565b50612bad6002826040518082805190602001908083835b60208310612b3e5780518252602082019150602081019050602083039250612b1b565b6001836020036101000a038019825116818451168082178552505050505050905001915050602060405180830381855afa158015612b80573d6000803e3d6000fd5b5050506040513d6020811015612b9557600080fd5b81019080805190602001909291905050508786613426565b612bc257600098505050505050505050612c48565b6005600083815260200190815260200160002060009054906101000a900460ff16612c1c57612bf18d846135e4565b6005600084815260200190815260200160002060006101000a81548160ff0219169083151502179055505b6005600083815260200190815260200160002060009054906101000a900460ff16985050505050505050505b949350505050565b6000813b9050919050565b6000612c656139fc565b9050919050565b60008073ffffffffffffffffffffffffffffffffffffffff16600260009054906101000a900473ffffffffffffffffffffffffffffffffffffffff1673ffffffffffffffffffffffffffffffffffffffff161480612cf457506000612cf2600260009054906101000a900473ffffffffffffffffffffffffffffffffffffffff16612c50565b145b15612d0557612d036000612c5b565b505b600260009054906101000a900473ffffffffffffffffffffffffffffffffffffffff1673ffffffffffffffffffffffffffffffffffffffff166338cc48316040518163ffffffff1660e01b8152600401602060405180830381600087803b158015612d6f57600080fd5b505af1158015612d83573d6000803e3d6000fd5b505050506040513d6020811015612d9957600080fd5b810190808051906020019092919050505073ffffffffffffffffffffffffffffffffffffffff16600160009054906101000a900473ffffffffffffffffffffffffffffffffffffffff1673ffffffffffffffffffffffffffffffffffffffff1614612ee457600260009054906101000a900473ffffffffffffffffffffffffffffffffffffffff1673ffffffffffffffffffffffffffffffffffffffff166338cc48316040518163ffffffff1660e01b8152600401602060405180830381600087803b158015612e6857600080fd5b505af1158015612e7c573d6000803e3d6000fd5b505050506040513d6020811015612e9257600080fd5b8101908080519060200190929190505050600160006101000a81548173ffffffffffffffffffffffffffffffffffffffff021916908373ffffffffffffffffffffffffffffffffffffffff1602179055505b600160009054906101000a900473ffffffffffffffffffffffffffffffffffffffff1673ffffffffffffffffffffffffffffffffffffffff1663abaa5f3e6040518163ffffffff1660e01b815260040160206040518083038186803b158015612f4c57600080fd5b505afa158015612f60573d6000803e3d6000fd5b505050506040513d6020811015612f7657600080fd5b8101908080519060200190929190505050905090565b6060600082850190508084511015612fa357600080fd5b600086602001905060008460200190505b868860200101821015612fdc5781890151808288015250602082019150602081019050612fb4565b85935050505095945050505050565b60008073ffffffffffffffffffffffffffffffffffffffff16600260009054906101000a900473ffffffffffffffffffffffffffffffffffffffff1673ffffffffffffffffffffffffffffffffffffffff16148061307357506000613071600260009054906101000a900473ffffffffffffffffffffffffffffffffffffffff16612c50565b145b15613084576130826000612c5b565b505b600260009054906101000a900473ffffffffffffffffffffffffffffffffffffffff1673ffffffffffffffffffffffffffffffffffffffff166338cc48316040518163ffffffff1660e01b8152600401602060405180830381600087803b1580156130ee57600080fd5b505af1158015613102573d6000803e3d6000fd5b505050506040513d602081101561311857600080fd5b810190808051906020019092919050505073ffffffffffffffffffffffffffffffffffffffff16600160009054906101000a900473ffffffffffffffffffffffffffffffffffffffff1673ffffffffffffffffffffffffffffffffffffffff161461326357600260009054906101000a900473ffffffffffffffffffffffffffffffffffffffff1673ffffffffffffffffffffffffffffffffffffffff166338cc48316040518163ffffffff1660e01b8152600401602060405180830381600087803b1580156131e757600080fd5b505af11580156131fb573d6000803e3d6000fd5b505050506040513d602081101561321157600080fd5b8101908080519060200190929190505050600160006101000a81548173ffffffffffffffffffffffffffffffffffffffff021916908373ffffffffffffffffffffffffffffffffffffffff1602179055505b6060600460405190808252806020026020018201604052801561329a57816020015b60608152602001906001900390816132855790505b509050836000600481106132aa57fe5b6020020151816000815181106132bc57fe5b6020026020010181905250836001600481106132d457fe5b6020020151816001815181106132e657fe5b6020026020010181905250836002600481106132fe57fe5b60200201518160028151811061331057fe5b60200260200101819052508360036004811061332857fe5b60200201518160038151811061333a57fe5b6020026020010181905250613350858285613f53565b9150509392505050565b8060046000848152602001908152602001600020819055505050565b600080600190508284511461338a57600080fd5b60008090505b8381101561341a578481815181106133a457fe5b602001015160f81c60f81b7effffffffffffffffffffffffffffffffffffffffffffffffffffffffffffff19168682602081106133dd57fe5b1a60f81b7effffffffffffffffffffffffffffffffffffffffffffffffffffffffffffff19161461340d57600091505b8080600101915050613390565b50809150509392505050565b6000806000806000606060206040519080825280601f01601f1916602001820160405280156134645781602001600182028038833980820191505090505b509050600060208960038151811061347857fe5b602001015160f81c60f81b60f81c60ff1603600401905061349e89826020856000612f8c565b9150606060206040519080825280601f01601f1916602001820160405280156134d65781602001600182028038833980820191505090505b5090506022820191506135128a60208c60018603815181106134f457fe5b602001015160f81c60f81b60f81c60ff160384016020846000612f8c565b9050602083015194506020810151935061352f8b601b87876144b9565b80975081985050508573ffffffffffffffffffffffffffffffffffffffff16898051906020012060001c73ffffffffffffffffffffffffffffffffffffffff1614156135855760019750505050505050506135dd565b6135928b601c87876144b9565b80975081985050508573ffffffffffffffffffffffffffffffffffffffff16898051906020012060001c73ffffffffffffffffffffffffffffffffffffffff16149750505050505050505b9392505050565b600080606060028560018601815181106135fa57fe5b602001015160f81c60f81b60f81c60ff16016040519080825280601f01601f19166020018201604052801561363e5781602001600182028038833980820191505090505b50905061365085858351846000612f8c565b506060604080519080825280601f01601f1916602001820160405280156136865781602001600182028038833980820191505090505b5090506136998660046040846000612f8c565b50606060626040519080825280601f01601f1916602001820160405280156136d05781602001600182028038833980820191505090505b509050600160f81b816000815181106136e557fe5b60200101907effffffffffffffffffffffffffffffffffffffffffffffffffffffffffffff1916908160001a90535061372687604188036041846001612f8c565b5060606040518060400160405280602081526020017ffd94fa71bc0ba10d39d464d0d8f465efeef0a2764e3887fcc9df41ded20f505c81525090506137718160006020856042612f8c565b5061381a6002836040518082805190602001908083835b602083106137ab5780518252602082019150602081019050602083039250613788565b6001836020036101000a038019825116818451168082178552505050505050905001915050602060405180830381855afa1580156137ed573d6000803e3d6000fd5b5050506040513d602081101561380257600080fd5b81019080805190602001909291905050508585613426565b94508461382f576000955050505050506139f6565b6060604051806060016040528060408152602001614a38604091399050606060426040519080825280601f01601f1916602001820160405280156138825781602001600182028038833980820191505090505b50905060fe60f81b8160008151811061389757fe5b60200101907effffffffffffffffffffffffffffffffffffffffffffffffffffffffffffff1916908160001a9053506138d68a60036041846001612f8c565b50606060028b6045815181106138e857fe5b602001015160f81c60f81b60f81c60ff16016040519080825280601f01601f19166020018201604052801561392c5781602001600182028038833980820191505090505b50905061393f8b60448351846000612f8c565b506139e86002836040518082805190602001908083835b602083106139795780518252602082019150602081019050602083039250613956565b6001836020036101000a038019825116818451168082178552505050505050905001915050602060405180830381855afa1580156139bb573d6000803e3d6000fd5b5050506040513d60208110156139d057600080fd5b81019080805190602001909291905050508285613426565b975087985050505050505050505b92915050565b600080613a1c731d3b2638a7cc9f2cb3d298a3da7a90b67e5506ed612c50565b1115613abe57731d3b2638a7cc9f2cb3d298a3da7a90b67e5506ed600260006101000a81548173ffffffffffffffffffffffffffffffffffffffff021916908373ffffffffffffffffffffffffffffffffffffffff160217905550613ab56040518060400160405280600b81526020017f6574685f6d61696e6e65740000000000000000000000000000000000000000008152506144fd565b60019050613f50565b6000613add73c03a2615d5efaf5f49f60b7bb6583eaec212fdf1612c50565b1115613b7f5773c03a2615d5efaf5f49f60b7bb6583eaec212fdf1600260006101000a81548173ffffffffffffffffffffffffffffffffffffffff021916908373ffffffffffffffffffffffffffffffffffffffff160217905550613b766040518060400160405280600c81526020017f6574685f726f707374656e3300000000000000000000000000000000000000008152506144fd565b60019050613f50565b6000613b9e73b7a07bcf2ba2f2703b24c0691b5278999c59ac7e612c50565b1115613c405773b7a07bcf2ba2f2703b24c0691b5278999c59ac7e600260006101000a81548173ffffffffffffffffffffffffffffffffffffffff021916908373ffffffffffffffffffffffffffffffffffffffff160217905550613c376040518060400160405280600981526020017f6574685f6b6f76616e00000000000000000000000000000000000000000000008152506144fd565b60019050613f50565b6000613c5f73146500cfd35b22e4a392fe0adc06de1a1368ed48612c50565b1115613d015773146500cfd35b22e4a392fe0adc06de1a1368ed48600260006101000a81548173ffffffffffffffffffffffffffffffffffffffff021916908373ffffffffffffffffffffffffffffffffffffffff160217905550613cf86040518060400160405280600b81526020017f6574685f72696e6b6562790000000000000000000000000000000000000000008152506144fd565b60019050613f50565b6000613d2073a2998efd205fb9d4b4963afb70778d6354ad3a41612c50565b1115613dc25773a2998efd205fb9d4b4963afb70778d6354ad3a41600260006101000a81548173ffffffffffffffffffffffffffffffffffffffff021916908373ffffffffffffffffffffffffffffffffffffffff160217905550613db96040518060400160405280600a81526020017f6574685f676f65726c69000000000000000000000000000000000000000000008152506144fd565b60019050613f50565b6000613de1736f485c8bf6fc43ea212e93bbf8ce046c7f1cb475612c50565b1115613e4557736f485c8bf6fc43ea212e93bbf8ce046c7f1cb475600260006101000a81548173ffffffffffffffffffffffffffffffffffffffff021916908373ffffffffffffffffffffffffffffffffffffffff16021790555060019050613f50565b6000613e647320e12a1f859b3feae5fb2a0a32c18f5a65555bbf612c50565b1115613ec8577320e12a1f859b3feae5fb2a0a32c18f5a65555bbf600260006101000a81548173ffffffffffffffffffffffffffffffffffffffff021916908373ffffffffffffffffffffffffffffffffffffffff16021790555060019050613f50565b6000613ee77351efaf4c8b3c9afbd5ab9f4bbc82784ab6ef8faa612c50565b1115613f4b577351efaf4c8b3c9afbd5ab9f4bbc82784ab6ef8faa600260006101000a81548173ffffffffffffffffffffffffffffffffffffffff021916908373ffffffffffffffffffffffffffffffffffffffff16021790555060019050613f50565b600090505b90565b60008073ffffffffffffffffffffffffffffffffffffffff16600260009054906101000a900473ffffffffffffffffffffffffffffffffffffffff1673ffffffffffffffffffffffffffffffffffffffff161480613fdb57506000613fd9600260009054906101000a900473ffffffffffffffffffffffffffffffffffffffff16612c50565b145b15613fec57613fea6000612c5b565b505b600260009054906101000a900473ffffffffffffffffffffffffffffffffffffffff1673ffffffffffffffffffffffffffffffffffffffff166338cc48316040518163ffffffff1660e01b8152600401602060405180830381600087803b15801561405657600080fd5b505af115801561406a573d6000803e3d6000fd5b505050506040513d602081101561408057600080fd5b810190808051906020019092919050505073ffffffffffffffffffffffffffffffffffffffff16600160009054906101000a900473ffffffffffffffffffffffffffffffffffffffff1673ffffffffffffffffffffffffffffffffffffffff16146141cb57600260009054906101000a900473ffffffffffffffffffffffffffffffffffffffff1673ffffffffffffffffffffffffffffffffffffffff166338cc48316040518163ffffffff1660e01b8152600401602060405180830381600087803b15801561414f57600080fd5b505af1158015614163573d6000803e3d6000fd5b505050506040513d602081101561417957600080fd5b8101908080519060200190929190505050600160006101000a81548173ffffffffffffffffffffffffffffffffffffffff021916908373ffffffffffffffffffffffffffffffffffffffff1602179055505b6000600160009054906101000a900473ffffffffffffffffffffffffffffffffffffffff1673ffffffffffffffffffffffffffffffffffffffff16632ef3accc86856040518363ffffffff1660e01b81526004018080602001838152602001828103825284818151815260200191508051906020019080838360005b83811015614262578082015181840152602081019050614247565b50505050905090810190601f16801561428f5780820380516001836020036101000a031916815260200191505b509350505050602060405180830381600087803b1580156142af57600080fd5b505af11580156142c3573d6000803e3d6000fd5b505050506040513d60208110156142d957600080fd5b81019080805190602001909291905050509050823a02670de0b6b3a76400000181111561430c576000801b9150506144b2565b606061431785614517565b9050600160009054906101000a900473ffffffffffffffffffffffffffffffffffffffff1673ffffffffffffffffffffffffffffffffffffffff1663c55c1cb68360008985896040518663ffffffff1660e01b8152600401808581526020018060200180602001848152602001838103835286818151815260200191508051906020019080838360005b838110156143bc5780820151818401526020810190506143a1565b50505050905090810190601f1680156143e95780820380516001836020036101000a031916815260200191505b50838103825285818151815260200191508051906020019080838360005b83811015614422578082015181840152602081019050614407565b50505050905090810190601f16801561444f5780820380516001836020036101000a031916815260200191505b5096505050505050506020604051808303818588803b15801561447157600080fd5b505af1158015614485573d6000803e3d6000fd5b50505050506040513d602081101561449c57600080fd5b8101908080519060200190929190505050925050505b9392505050565b60008060008060405188815287602082015286604082015285606082015260208160808360006001610bb8f192508051915050818193509350505094509492505050565b8060039080519060200190614513929190614947565b5050565b6060614521614597565b6145296149c7565b614535816104006145a3565b61453e816145ed565b60008090505b83518110156145805761457384828151811061455c57fe5b6020026020010151836145fb90919063ffffffff16565b8080600101915050614544565b5061458a81614620565b8060000151915050919050565b60405180590338823950565b60008190506000602082816145b457fe5b06146145cd57602081816145c457fe5b06602003810190505b808360200181815250506040518084526000815281810160405250505050565b6145f881600461462e565b50565b614608826002835161464f565b61461b818361478f90919063ffffffff16565b505050565b61462b81600761462e565b50565b61464b601f60058360ff16901b178361483a90919063ffffffff16565b5050565b6017811161467b576146768160058460ff16901b60ff16178461483a90919063ffffffff16565b61478a565b60ff81116146bc576146a0601860058460ff16901b178461483a90919063ffffffff16565b6146b68160018561487a9092919063ffffffff16565b50614789565b61ffff81116146fe576146e2601960058460ff16901b178461483a90919063ffffffff16565b6146f88160028561487a9092919063ffffffff16565b50614788565b63ffffffff811161474257614726601a60058460ff16901b178461483a90919063ffffffff16565b61473c8160048561487a9092919063ffffffff16565b50614787565b67ffffffffffffffff81116147865761476e601b60058460ff16901b178461483a90919063ffffffff16565b6147848160088561487a9092919063ffffffff16565b505b5b5b5b5b505050565b6147976149c7565b826020015183600001515183510111156147c7576147c68360026147c0866020015186516148e1565b026148fd565b5b60008060008451905085518051602081830101945086518101825260208701935050505b6020811061480e57815183526020830192506020820191506020810390506147eb565b60006001826020036101000a039050801983511681855116818117865250508694505050505092915050565b816020015160018360000151510111156148605761485f8260028460200151026148fd565b5b815180516020818301018381536001820183525050505050565b6148826149c7565b8360200151846000015151830111156148b0576148af8460026148a98760200151866148e1565b026148fd565b5b60006001836101000a0390508451805184818301018684198251161781528582018352505050849150509392505050565b6000818311156148f3578290506148f7565b8190505b92915050565b60608260000151905061491083836145a3565b61491a838261478f565b50505050565b60405180608001604052806004905b606081526020019060019003908161492f5790505090565b828054600181600116156101000203166002900490600052602060002090601f016020900481019282601f1061498857805160ff19168380011785556149b6565b828001600101855582156149b6579182015b828111156149b557825182559160200191906001019061499a565b5b5090506149c391906149e1565b5090565b604051806040016040528060608152602001600081525090565b614a0391905b808211156149ff5760008160009055506001016149e7565b5090565b9056fe50726f7661626c65207175657279207761732073656e742c2077616974696e6720666f72207468652063616c6c6261636b7fb956469c5c9b89840d55b43537e66a98dd4811ea0a27224272c2e5622911e8537a2f8e86a46baec82864e98dd01e9ccc2f8bc5dfc9cbe5a91a290498dd96e4596f75206172652063757272656e746c7920696e2067616d652c2063616e6e6f742073746172742061206e6577206f6e6520796574a265627a7a72315820d08ca5a6674a799f07426747f94bb083cf34a798471ef9d40c7a042bcab48f2864736f6c634300050c0032",
  "source": "pragma solidity 0.5.12;\r\nimport \"./Ownable.sol\";\r\nimport \"./provableAPI.sol\";\r\n\r\ncontract Gambling is Ownable, usingProvable {\r\n\r\n  uint256 constant NUM_RANDOM_BYTES_REQUESTED = 1;\r\n\r\n  uint256 public balance;\r\n\r\n\r\n  event DepositSent( uint size);\r\n  event LogNewProvableQuery (string queryRequested);\r\n  event generatedRandomNumber(uint256 randomNumber);\r\n  event flipResult (string result);\r\n\r\n\r\n  constructor () public {\r\n    provable_setProof(proofType_Ledger);\r\n  }\r\n\r\n    struct User {  //struct one\r\n    bytes32 id;\r\n    address playerAddress;\r\n  }\r\n\r\n     struct Bet{  //struct two\r\n      address payable playerAddress;\r\n      uint side;\r\n      uint userBallance;\r\n      uint size;\r\n      bool inGame;\r\n      bool isItWins;\r\n      uint ranNubber;\r\n\r\n  }\r\n\r\n\r\n  mapping (address => Bet) public betting;\r\n  mapping (bytes32 => User) public player;\r\n\r\n    // Need size and side of the coin\r\n   function flip (uint size, uint side) payable public  {\r\n     require(size <= betting[msg.sender].userBallance);\r\n     require (betting[msg.sender].inGame == false, \"You are currently in game, cannot start a new one yet\");\r\n     betting[msg.sender].playerAddress = msg.sender;\r\n     betting[msg.sender].side = side;\r\n     betting[msg.sender].size = size;\r\n     betting[msg.sender].inGame = true;\r\n     betting[msg.sender].isItWins = false;\r\n     betting[msg.sender].ranNubber = 0;\r\n\r\n\r\n\r\n   update();\r\n  }\r\n    // Updating and waiting for query_id\r\n    function update() payable public {\r\n    // Call the oracle and populare the struct \"User\";\r\n    uint256 QUERY_EXECUTION_DELAY = 0;\r\n    uint256 GAS_FOR_CALLBACK =200000;\r\n    bytes32 query_id = provable_newRandomDSQuery(QUERY_EXECUTION_DELAY, NUM_RANDOM_BYTES_REQUESTED, GAS_FOR_CALLBACK);\r\n\r\n    player[query_id].id = query_id;\r\n    player[query_id].playerAddress = msg.sender;\r\n\r\n    emit LogNewProvableQuery (\"Provable query was sent, waiting for the callback\");\r\n  }\r\n\r\n    //waiting for callback\r\n   function __callback(bytes32 _queryId, string memory _result, bytes memory _proof) public {\r\n    if (\r\n      provable_randomDS_proofVerify__returnCode(\r\n                _queryId,\r\n                _result,\r\n                _proof\r\n            ) != 0\r\n        ) {\r\n        } else {\r\n\r\n    require (msg.sender == provable_cbAddress());\r\n    uint256 randomNumber = uint256(keccak256(abi.encodePacked(_result)))%2;\r\n\r\n    verifyResult (randomNumber, _queryId);\r\n    emit generatedRandomNumber (randomNumber);\r\n    }\r\n  }\r\n\r\n    //Is it WIN or Lose\r\n   function verifyResult (uint randomNumber, bytes32 _queryId) private {\r\n\r\n        if(randomNumber == betting[player[_queryId].playerAddress].side){\r\n\r\n             betting[player[_queryId].playerAddress].userBallance = betting[player[_queryId].playerAddress].userBallance +  betting[player[_queryId].playerAddress].size*1e16*2;\r\n             balance -= betting[player[_queryId].playerAddress].size*1e16;\r\n             betting[player[_queryId].playerAddress].isItWins = true;\r\n             betting[player[_queryId].playerAddress].ranNubber = randomNumber;\r\n             emit flipResult (\"won\");\r\n\r\n            }else {\r\n              betting[player[_queryId].playerAddress].userBallance -= betting[player[_queryId].playerAddress].size*1e16;\r\n              balance += betting[player[_queryId].playerAddress].size*1e16;\r\n              betting[player[_queryId].playerAddress].isItWins = false;\r\n              betting[player[_queryId].playerAddress].ranNubber = randomNumber;\r\n              emit flipResult (\"lost\");\r\n\r\n\r\n       }\r\n\r\n\r\n\r\n    betting[player[_queryId].playerAddress].inGame = false;\r\n  }\r\n\r\n\r\n\r\n     //Withdraw all money from the contract\r\n    function withdrawAll() public onlyOwner payable returns(uint){\r\n        //Should require that no bet is prozess! Should wait and disalow all new bets!\r\n        msg.sender.transfer(address(this).balance);\r\n        assert(address(this).balance == 0);\r\n        return address(this).balance;\r\n    }\r\n\r\n    // Inset money in the Contract\r\n    function fundContract(uint256 ss) public payable onlyOwner returns(uint){\r\n        require(msg.value == ss*1e16);\r\n      if(msg.value != ss*1e16) revert();\r\n      balance = balance + (ss* 1e16);\r\n\r\n    }\r\n\r\n    // Insert money in the userBallance\r\n   function depositM(uint256 addedmoney) public payable  {\r\n        address creator = msg.sender;\r\n        require(msg.value == addedmoney*1e16 );\r\n\r\n        if(msg.value != addedmoney*1e16) revert();\r\n\r\n        betting[creator].userBallance = betting[creator].userBallance + addedmoney*1e16;\r\n        emit DepositSent(addedmoney);\r\n    }\r\n\r\n     // Returns the balance of the player\r\n   function getMoney() public view returns (uint256){\r\n       return( betting[msg.sender].userBallance);\r\n   }\r\n\r\n    // Withdraw money from the userBallance\r\n   function witrowpublicmoney() public payable {\r\n       address creator = msg.sender;\r\n     uint publicBallace = betting[creator].userBallance;\r\n     betting[creator].userBallance = 0;\r\n      msg.sender.transfer(publicBallace);\r\n\r\n   }\r\n\r\n   // Bool is the player wins\r\n   function isItWinning() public view returns (bool){\r\n       return ( betting[msg.sender].isItWins);\r\n   }\r\n\r\n    // Check ContractBallanse\r\n   function ContractBallanse()public view onlyOwner returns (uint){\r\n      return (address(this).balance);\r\n  }\r\n\r\n   // Returns player address\r\n  function getAddress() public view returns (address) {\r\n     address creator = msg.sender;\r\n     return betting[creator].playerAddress;\r\n\r\n   }\r\n\r\n   // withdraws 50% of the contract Only Owner\r\n   function withdrawl50() public onlyOwner{\r\n      uint allmoney = balance /2;\r\n      balance = balance /2;\r\n      msg.sender.transfer(allmoney);\r\n    }\r\n\r\n   //Destroy the contract\r\n    function destToy()public onlyOwner{\r\n        address payable reciever = msg.sender;\r\n\r\n        selfdestruct(reciever);\r\n    }\r\n\r\n   //get randomNumber\r\n   function getRndom () public view returns (uint256){\r\n       address creator = msg.sender;\r\n       return( betting[creator].ranNubber);\r\n   }\r\n\r\n}\r\n",
  "sourcePath": "C:/Users/angel/ethereum-course-advansed/Gambling Project v2/contracts/Gambling.sol",
  "compiler": {
    "name": "solc",
    "version": "0.5.12+commit.7709ece9.Emscripten.clang"
  },
  "schemaVersion": "3.0.16",
  "updatedAt": "2020-02-26T19:59:24.888Z",
  "devdoc": {
    "methods": {
      "__callback(bytes32,string)": {
        "details": "The following `__callback` functions are just placeholders ideally     meant to be defined in child contract when proofs are used.     The function bodies simply silence compiler warnings."
      }
    }
  },
  "userdoc": {
    "methods": {}
  }
}