{
  "contractName": "Gambling",
  "abi": [
    {
      "anonymous": false,
      "inputs": [
        {
          "indexed": false,
          "internalType": "uint256",
          "name": "size",
          "type": "uint256"
        },
        {
          "indexed": false,
          "internalType": "uint256",
          "name": "bol",
          "type": "uint256"
        }
      ],
      "name": "BetMade",
      "type": "event"
    },
    {
      "constant": true,
      "inputs": [],
      "name": "balance",
      "outputs": [
        {
          "internalType": "uint256",
          "name": "",
          "type": "uint256"
        }
      ],
      "payable": false,
      "stateMutability": "view",
      "type": "function"
    },
    {
      "constant": true,
      "inputs": [],
      "name": "money",
      "outputs": [
        {
          "internalType": "uint256",
          "name": "",
          "type": "uint256"
        }
      ],
      "payable": false,
      "stateMutability": "view",
      "type": "function"
    },
    {
      "constant": true,
      "inputs": [],
      "name": "randommm",
      "outputs": [
        {
          "internalType": "uint256",
          "name": "",
          "type": "uint256"
        }
      ],
      "payable": false,
      "stateMutability": "view",
      "type": "function"
    },
    {
      "constant": false,
      "inputs": [],
      "name": "destToy",
      "outputs": [],
      "payable": false,
      "stateMutability": "nonpayable",
      "type": "function"
    },
    {
      "constant": true,
      "inputs": [],
      "name": "random",
      "outputs": [
        {
          "internalType": "uint256",
          "name": "",
          "type": "uint256"
        }
      ],
      "payable": false,
      "stateMutability": "view",
      "type": "function"
    },
    {
      "constant": false,
      "inputs": [
        {
          "internalType": "uint256",
          "name": "size",
          "type": "uint256"
        },
        {
          "internalType": "uint256",
          "name": "bol",
          "type": "uint256"
        }
      ],
      "name": "addBet",
      "outputs": [],
      "payable": true,
      "stateMutability": "payable",
      "type": "function"
    },
    {
      "constant": false,
      "inputs": [],
      "name": "widtraulall",
      "outputs": [],
      "payable": true,
      "stateMutability": "payable",
      "type": "function"
    },
    {
      "constant": false,
      "inputs": [],
      "name": "witrowpublicmoney",
      "outputs": [],
      "payable": true,
      "stateMutability": "payable",
      "type": "function"
    },
    {
      "constant": true,
      "inputs": [],
      "name": "getMoney",
      "outputs": [
        {
          "internalType": "uint256",
          "name": "",
          "type": "uint256"
        }
      ],
      "payable": false,
      "stateMutability": "view",
      "type": "function"
    },
    {
      "constant": true,
      "inputs": [],
      "name": "isItWinning",
      "outputs": [
        {
          "internalType": "bool",
          "name": "",
          "type": "bool"
        }
      ],
      "payable": false,
      "stateMutability": "view",
      "type": "function"
    },
    {
      "constant": false,
      "inputs": [
        {
          "internalType": "uint256",
          "name": "adding",
          "type": "uint256"
        }
      ],
      "name": "insertBallance",
      "outputs": [],
      "payable": true,
      "stateMutability": "payable",
      "type": "function"
    },
    {
      "constant": true,
      "inputs": [],
      "name": "CasinoProfit",
      "outputs": [
        {
          "internalType": "uint256",
          "name": "",
          "type": "uint256"
        }
      ],
      "payable": false,
      "stateMutability": "view",
      "type": "function"
    },
    {
      "constant": true,
      "inputs": [],
      "name": "ContractBallanse",
      "outputs": [
        {
          "internalType": "uint256",
          "name": "",
          "type": "uint256"
        }
      ],
      "payable": false,
      "stateMutability": "view",
      "type": "function"
    },
    {
      "constant": true,
      "inputs": [],
      "name": "retRandom",
      "outputs": [
        {
          "internalType": "uint256",
          "name": "",
          "type": "uint256"
        }
      ],
      "payable": false,
      "stateMutability": "view",
      "type": "function"
    },
    {
      "constant": true,
      "inputs": [],
      "name": "getAddress",
      "outputs": [
        {
          "internalType": "address",
          "name": "",
          "type": "address"
        }
      ],
      "payable": false,
      "stateMutability": "view",
      "type": "function"
    }
  ],
  "bytecode": "0x6080604052600060015560006002556000600355336000806101000a81548173ffffffffffffffffffffffffffffffffffffffff021916908373ffffffffffffffffffffffffffffffffffffffff160217905550610bc3806100626000396000f3fe6080604052600436106100e85760003560e01c80635ec01e4d1161008a578063b69ef8a811610059578063b69ef8a8146102c4578063d4479b50146102ef578063e095615a1461031a578063f9707a2914610331576100e8565b80635ec01e4d1461023657806394f454061461026157806398e1b4101461028f578063b1b56fc6146102ba576100e8565b8063399d2671116100c6578063399d2671146101865780634c2fa8ad146101b55780634ddd108a146101e0578063520393bf1461020b576100e8565b806323158cae146100ed578063332207f31461012557806338cc48311461012f575b600080fd5b6101236004803603604081101561010357600080fd5b81019080803590602001909291908035906020019092919050505061035c565b005b61012d6106ac565b005b34801561013b57600080fd5b5061014461075e565b604051808273ffffffffffffffffffffffffffffffffffffffff1673ffffffffffffffffffffffffffffffffffffffff16815260200191505060405180910390f35b34801561019257600080fd5b5061019b6107cd565b604051808215151515815260200191505060405180910390f35b3480156101c157600080fd5b506101ca610829565b6040518082815260200191505060405180910390f35b3480156101ec57600080fd5b506101f56108a1565b6040518082815260200191505060405180910390f35b34801561021757600080fd5b506102206108a7565b6040518082815260200191505060405180910390f35b34801561024257600080fd5b5061024b61090e565b6040518082815260200191505060405180910390f35b61028d6004803603602081101561027757600080fd5b8101908080359060200190929190505050610920565b005b34801561029b57600080fd5b506102a46109bd565b6040518082815260200191505060405180910390f35b6102c26109c7565b005b3480156102d057600080fd5b506102d9610aba565b6040518082815260200191505060405180910390f35b3480156102fb57600080fd5b50610304610ac0565b6040518082815260200191505060405180910390f35b34801561032657600080fd5b5061032f610ac6565b005b34801561033d57600080fd5b50610346610b3d565b6040518082815260200191505060405180910390f35b8134101561036957600080fd5b6000339050610376610b47565b838160200181815250508281604001818152505033816080019073ffffffffffffffffffffffffffffffffffffffff16908173ffffffffffffffffffffffffffffffffffffffff168152505080600460008473ffffffffffffffffffffffffffffffffffffffff1673ffffffffffffffffffffffffffffffffffffffff16815260200190815260200160002060008201518160000155602082015181600101556040820151816002015560608201518160030160006101000a81548160ff02191690831515021790555060808201518160030160016101000a81548173ffffffffffffffffffffffffffffffffffffffff021916908373ffffffffffffffffffffffffffffffffffffffff16021790555090505061049261090e565b50600061049d61090e565b1480156104aa5750600083145b156104f0576001816060019015159081151581525050600234026002600082825401925050819055506104db6109c7565b34600160008282540392505081905550610571565b60016104fa61090e565b1480156105075750600183145b1561053d576001816060019015159081151581525050600234026002600082825401925050819055506105386109c7565b610570565b60006002600082825401925050819055503460016000828254019250508190555060008160600190151590811515815250505b5b600061057b61090e565b141561058e576000600381905550610597565b60016003819055505b80600460008473ffffffffffffffffffffffffffffffffffffffff1673ffffffffffffffffffffffffffffffffffffffff16815260200190815260200160002060008201518160000155602082015181600101556040820151816002015560608201518160030160006101000a81548160ff02191690831515021790555060808201518160030160016101000a81548173ffffffffffffffffffffffffffffffffffffffff021916908373ffffffffffffffffffffffffffffffffffffffff1602179055509050507f28d81d852791096da3eb29e09e6a488bb0c92df6f307d77d3a61ed00a66aace681602001518260400151604051808381526020018281526020019250505060405180910390a150505050565b3373ffffffffffffffffffffffffffffffffffffffff166000809054906101000a900473ffffffffffffffffffffffffffffffffffffffff1673ffffffffffffffffffffffffffffffffffffffff161461070557600080fd5b6000600154905060006001819055503373ffffffffffffffffffffffffffffffffffffffff166108fc829081150290604051600060405180830381858888f1935050505015801561075a573d6000803e3d6000fd5b5050565b600080339050600460008273ffffffffffffffffffffffffffffffffffffffff1673ffffffffffffffffffffffffffffffffffffffff16815260200190815260200160002060030160019054906101000a900473ffffffffffffffffffffffffffffffffffffffff1691505090565b600080339050600460008273ffffffffffffffffffffffffffffffffffffffff1673ffffffffffffffffffffffffffffffffffffffff16815260200190815260200160002060030160009054906101000a900460ff1691505090565b60003373ffffffffffffffffffffffffffffffffffffffff166000809054906101000a900473ffffffffffffffffffffffffffffffffffffffff1673ffffffffffffffffffffffffffffffffffffffff161461088457600080fd5b3073ffffffffffffffffffffffffffffffffffffffff1631905090565b60025481565b60003373ffffffffffffffffffffffffffffffffffffffff166000809054906101000a900473ffffffffffffffffffffffffffffffffffffffff1673ffffffffffffffffffffffffffffffffffffffff161461090257600080fd5b60025460015403905090565b60006002428161091a57fe5b06905090565b3373ffffffffffffffffffffffffffffffffffffffff166000809054906101000a900473ffffffffffffffffffffffffffffffffffffffff1673ffffffffffffffffffffffffffffffffffffffff161461097957600080fd5b670de0b6b3a76400008102341461098f57600080fd5b670de0b6b3a7640000810234146109a557600080fd5b670de0b6b3a764000081026001540160018190555050565b6000600254905090565b600460003373ffffffffffffffffffffffffffffffffffffffff1673ffffffffffffffffffffffffffffffffffffffff16815260200190815260200160002060030160019054906101000a900473ffffffffffffffffffffffffffffffffffffffff1673ffffffffffffffffffffffffffffffffffffffff163373ffffffffffffffffffffffffffffffffffffffff1614610a6157600080fd5b6000600254905060006002819055503373ffffffffffffffffffffffffffffffffffffffff166108fc829081150290604051600060405180830381858888f19350505050158015610ab6573d6000803e3d6000fd5b5050565b60015481565b60035481565b3373ffffffffffffffffffffffffffffffffffffffff166000809054906101000a900473ffffffffffffffffffffffffffffffffffffffff1673ffffffffffffffffffffffffffffffffffffffff1614610b1f57600080fd5b60003390508073ffffffffffffffffffffffffffffffffffffffff16ff5b6000600354905090565b6040518060a00160405280600081526020016000815260200160008152602001600015158152602001600073ffffffffffffffffffffffffffffffffffffffff168152509056fea265627a7a72315820429ea9b048300c23bf12052594d8bdfb3e502211a51f7d158342adea3461d28c64736f6c634300050c0032",
  "source": "pragma solidity 0.5.12;\r\nimport \"./Ownable.sol\";\r\n\r\ncontract Gambling is Ownable{\r\n\r\n   struct Bet{\r\n       uint id;\r\n       uint size;\r\n       uint bol;\r\n       bool isWinning ;\r\n       address playerAddress;\r\n\r\n   }\r\n\r\n\r\n\r\n   function destToy()public onlyOwner{\r\n       address payable reciever = msg.sender;\r\n\r\n       selfdestruct(reciever);\r\n   }\r\n\r\n\r\n   uint public balance = 0;\r\n\r\n   uint public money = 0;\r\n\r\nuint public randommm=0;\r\n\r\nevent BetMade(uint size, uint bol);\r\n\r\n   mapping(address => Bet) private betting;\r\n\r\n   modifier onlyBetOwner(){\r\n      require(msg.sender == betting[msg.sender].playerAddress);\r\n      _;\r\n  }\r\n\r\n\r\n   function random() public view returns (uint){\r\n\r\n       return now %2;\r\n\r\n\r\n   }\r\n\r\n\r\n\r\n   function addBet(uint size, uint bol) public payable{\r\n       require(msg.value >= size);\r\n\r\n       address creator = msg.sender;\r\n       Bet memory newBet;\r\n       newBet.size = size;\r\n       newBet.bol = bol;\r\n       newBet.playerAddress = msg.sender;\r\n       betting[creator] = newBet;\r\n\r\n\r\n\r\n\r\n       random();\r\n\r\n\r\n\r\n       if((random() == 0) && (bol == 0)){\r\n            newBet.isWinning=true;\r\n            money += msg.value*2;\r\n            witrowpublicmoney();\r\n\r\n           balance -= msg.value;\r\n         }else if((random() == 1) && (bol ==1)){\r\n           newBet.isWinning=true;\r\n           money += msg.value*2;\r\n           witrowpublicmoney();\r\n\r\n\r\n\r\n\r\n       }else {\r\n         money += 0;\r\n        balance += msg.value;\r\n        newBet.isWinning = false;\r\n       }\r\n\r\n       if(random() == 0){\r\n         randommm=0;\r\n           }else{\r\n             randommm=1;\r\n\r\n          }\r\n        betting[creator] = newBet;\r\n        emit BetMade(newBet.size, newBet.bol);\r\n\r\n   }\r\n\r\n\r\n   function widtraulall()public payable onlyOwner {\r\n       uint allmoney = balance;\r\n       balance = 0;\r\n       msg.sender.transfer(allmoney);\r\n\r\n   }\r\n\r\n   function witrowpublicmoney() public payable onlyBetOwner {\r\n     uint publicBallace = money;\r\n     money = 0;\r\n      msg.sender.transfer(publicBallace);\r\n\r\n   }\r\n\r\n   function getMoney() public view returns (uint){\r\n     return (money);\r\n   }\r\n\r\n\r\n\r\n   function isItWinning() public  view returns(bool){\r\n   address creator = msg.sender;\r\n   return(betting[creator].isWinning);\r\n\r\n   }\r\n\r\n\r\n  function insertBallance(uint adding) public payable onlyOwner{\r\n\r\n      require(msg.value == adding*1e18);\r\n      if(msg.value != adding*1e18) revert();\r\n      balance = balance + (adding* 1e18);\r\n  }\r\n\r\n  function CasinoProfit()public view onlyOwner returns(uint256){\r\n      return(balance - money);\r\n  }\r\n\r\n  function ContractBallanse()public view onlyOwner returns (uint){\r\n      return (address(this).balance);\r\n  }\r\n\r\n   function retRandom() public view returns(uint){\r\n     return (randommm);\r\n   }\r\n\r\n   function getAddress() public view returns (address) {\r\n     address creator = msg.sender;\r\n     return betting[creator].playerAddress;\r\n\r\n   }\r\n\r\n\r\n}\r\n",
  "sourcePath": "C:/Users/angel/ethereum-course-advansed/Gambling Project/contracts/Gambling.sol",
  "compiler": {
    "name": "solc",
    "version": "0.5.12+commit.7709ece9.Emscripten.clang"
  },
  "schemaVersion": "3.0.16",
  "updatedAt": "2020-02-11T07:15:58.843Z",
  "devdoc": {
    "methods": {}
  },
  "userdoc": {
    "methods": {}
  }
}