{
  "contractName": "Gambling",
  "abi": [
    {
      "anonymous": false,
      "inputs": [
        {
          "indexed": false,
          "internalType": "uint256",
          "name": "size",
          "type": "uint256"
        },
        {
          "indexed": false,
          "internalType": "uint256",
          "name": "bol",
          "type": "uint256"
        }
      ],
      "name": "BetMade",
      "type": "event"
    },
    {
      "constant": true,
      "inputs": [],
      "name": "balance",
      "outputs": [
        {
          "internalType": "uint256",
          "name": "",
          "type": "uint256"
        }
      ],
      "payable": false,
      "stateMutability": "view",
      "type": "function"
    },
    {
      "constant": true,
      "inputs": [],
      "name": "randommm",
      "outputs": [
        {
          "internalType": "uint256",
          "name": "",
          "type": "uint256"
        }
      ],
      "payable": false,
      "stateMutability": "view",
      "type": "function"
    },
    {
      "constant": false,
      "inputs": [],
      "name": "destToy",
      "outputs": [],
      "payable": false,
      "stateMutability": "nonpayable",
      "type": "function"
    },
    {
      "constant": true,
      "inputs": [],
      "name": "random",
      "outputs": [
        {
          "internalType": "uint256",
          "name": "",
          "type": "uint256"
        }
      ],
      "payable": false,
      "stateMutability": "view",
      "type": "function"
    },
    {
      "constant": false,
      "inputs": [
        {
          "internalType": "uint256",
          "name": "size",
          "type": "uint256"
        },
        {
          "internalType": "uint256",
          "name": "bol",
          "type": "uint256"
        }
      ],
      "name": "addBet",
      "outputs": [],
      "payable": false,
      "stateMutability": "nonpayable",
      "type": "function"
    },
    {
      "constant": false,
      "inputs": [],
      "name": "widtraulall",
      "outputs": [],
      "payable": true,
      "stateMutability": "payable",
      "type": "function"
    },
    {
      "constant": false,
      "inputs": [],
      "name": "witrowpublicmoney",
      "outputs": [],
      "payable": true,
      "stateMutability": "payable",
      "type": "function"
    },
    {
      "constant": true,
      "inputs": [],
      "name": "getMoney",
      "outputs": [
        {
          "internalType": "uint256",
          "name": "",
          "type": "uint256"
        }
      ],
      "payable": false,
      "stateMutability": "view",
      "type": "function"
    },
    {
      "constant": true,
      "inputs": [],
      "name": "isItWinning",
      "outputs": [
        {
          "internalType": "bool",
          "name": "",
          "type": "bool"
        }
      ],
      "payable": false,
      "stateMutability": "view",
      "type": "function"
    },
    {
      "constant": false,
      "inputs": [
        {
          "internalType": "uint256",
          "name": "adding",
          "type": "uint256"
        }
      ],
      "name": "insertBallance",
      "outputs": [],
      "payable": true,
      "stateMutability": "payable",
      "type": "function"
    },
    {
      "constant": true,
      "inputs": [],
      "name": "ContractBallanse",
      "outputs": [
        {
          "internalType": "uint256",
          "name": "",
          "type": "uint256"
        }
      ],
      "payable": false,
      "stateMutability": "view",
      "type": "function"
    },
    {
      "constant": true,
      "inputs": [],
      "name": "retRandom",
      "outputs": [
        {
          "internalType": "uint256",
          "name": "",
          "type": "uint256"
        }
      ],
      "payable": false,
      "stateMutability": "view",
      "type": "function"
    },
    {
      "constant": true,
      "inputs": [],
      "name": "getAddress",
      "outputs": [
        {
          "internalType": "address",
          "name": "",
          "type": "address"
        }
      ],
      "payable": false,
      "stateMutability": "view",
      "type": "function"
    },
    {
      "constant": false,
      "inputs": [
        {
          "internalType": "uint256",
          "name": "addedmoney",
          "type": "uint256"
        }
      ],
      "name": "depositM",
      "outputs": [],
      "payable": true,
      "stateMutability": "payable",
      "type": "function"
    }
  ],
  "bytecode": "0x608060405260006001556000600255336000806101000a81548173ffffffffffffffffffffffffffffffffffffffff021916908373ffffffffffffffffffffffffffffffffffffffff160217905550610cfc8061005d6000396000f3fe6080604052600436106100dd5760003560e01c806394f454061161007f578063b69ef8a811610059578063b69ef8a81461029e578063d4479b50146102c9578063e095615a146102f4578063f9707a291461030b576100dd565b806394f454061461023b57806398e1b41014610269578063b1b56fc614610294576100dd565b806338cc4831116100bb57806338cc48311461015f578063399d2671146101b65780634c2fa8ad146101e55780635ec01e4d14610210576100dd565b80630e229553146100e257806323158cae14610110578063332207f314610155575b600080fd5b61010e600480360360208110156100f857600080fd5b8101908080359060200190929190505050610336565b005b34801561011c57600080fd5b506101536004803603604081101561013357600080fd5b810190808035906020019092919080359060200190929190505050610400565b005b61015d6107d9565b005b34801561016b57600080fd5b5061017461088b565b604051808273ffffffffffffffffffffffffffffffffffffffff1673ffffffffffffffffffffffffffffffffffffffff16815260200191505060405180910390f35b3480156101c257600080fd5b506101cb6108fa565b604051808215151515815260200191505060405180910390f35b3480156101f157600080fd5b506101fa610956565b6040518082815260200191505060405180910390f35b34801561021c57600080fd5b506102256109ce565b6040518082815260200191505060405180910390f35b6102676004803603602081101561025157600080fd5b81019080803590602001909291905050506109e0565b005b34801561027557600080fd5b5061027e610a24565b6040518082815260200191505060405180910390f35b61029c610a73565b005b3480156102aa57600080fd5b506102b3610bec565b6040518082815260200191505060405180910390f35b3480156102d557600080fd5b506102de610bf2565b6040518082815260200191505060405180910390f35b34801561030057600080fd5b50610309610bf8565b005b34801561031757600080fd5b50610320610c6f565b6040518082815260200191505060405180910390f35b6000339050670de0b6b3a76400008202341461035157600080fd5b670de0b6b3a76400008202341461036757600080fd5b670de0b6b3a76400008202600360008373ffffffffffffffffffffffffffffffffffffffff1673ffffffffffffffffffffffffffffffffffffffff1681526020019081526020016000206004015401600360008373ffffffffffffffffffffffffffffffffffffffff1673ffffffffffffffffffffffffffffffffffffffff168152602001908152602001600020600401819055505050565b6000339050600360008273ffffffffffffffffffffffffffffffffffffffff1673ffffffffffffffffffffffffffffffffffffffff16815260200190815260200160002060040154670de0b6b3a76400008402111561045e57600080fd5b610466610c79565b838160200181815250508281604001818152505033816080019073ffffffffffffffffffffffffffffffffffffffff16908173ffffffffffffffffffffffffffffffffffffffff16815250506104ba6109ce565b5060006104c56109ce565b1480156104d25750600083145b156105625760018160600190151590811515815250506002670de0b6b3a7640000850202600360008473ffffffffffffffffffffffffffffffffffffffff1673ffffffffffffffffffffffffffffffffffffffff16815260200190815260200160002060040154018160a0018181525050670de0b6b3a76400008402600160008282540392505081905550610694565b600161056c6109ce565b1480156105795750600183145b156106095760018160600190151590811515815250506002670de0b6b3a7640000850202600360008473ffffffffffffffffffffffffffffffffffffffff1673ffffffffffffffffffffffffffffffffffffffff16815260200190815260200160002060040154018160a0018181525050670de0b6b3a76400008402600160008282540392505081905550610693565b6000600360003373ffffffffffffffffffffffffffffffffffffffff1673ffffffffffffffffffffffffffffffffffffffff168152602001908152602001600020600401549050670de0b6b3a7640000850281038260a0018181525050670de0b6b3a764000085026001600082825401925050819055506000826060019015159081151581525050505b5b600061069e6109ce565b14156106b15760006002819055506106ba565b60016002819055505b80600360008473ffffffffffffffffffffffffffffffffffffffff1673ffffffffffffffffffffffffffffffffffffffff16815260200190815260200160002060008201518160000155602082015181600101556040820151816002015560608201518160030160006101000a81548160ff02191690831515021790555060808201518160030160016101000a81548173ffffffffffffffffffffffffffffffffffffffff021916908373ffffffffffffffffffffffffffffffffffffffff16021790555060a082015181600401559050507f28d81d852791096da3eb29e09e6a488bb0c92df6f307d77d3a61ed00a66aace681602001518260400151604051808381526020018281526020019250505060405180910390a150505050565b3373ffffffffffffffffffffffffffffffffffffffff166000809054906101000a900473ffffffffffffffffffffffffffffffffffffffff1673ffffffffffffffffffffffffffffffffffffffff161461083257600080fd5b6000600154905060006001819055503373ffffffffffffffffffffffffffffffffffffffff166108fc829081150290604051600060405180830381858888f19350505050158015610887573d6000803e3d6000fd5b5050565b600080339050600360008273ffffffffffffffffffffffffffffffffffffffff1673ffffffffffffffffffffffffffffffffffffffff16815260200190815260200160002060030160019054906101000a900473ffffffffffffffffffffffffffffffffffffffff1691505090565b600080339050600360008273ffffffffffffffffffffffffffffffffffffffff1673ffffffffffffffffffffffffffffffffffffffff16815260200190815260200160002060030160009054906101000a900460ff1691505090565b60003373ffffffffffffffffffffffffffffffffffffffff166000809054906101000a900473ffffffffffffffffffffffffffffffffffffffff1673ffffffffffffffffffffffffffffffffffffffff16146109b157600080fd5b3073ffffffffffffffffffffffffffffffffffffffff1631905090565b6000600242816109da57fe5b06905090565b670de0b6b3a7640000810234146109f657600080fd5b670de0b6b3a764000081023414610a0c57600080fd5b670de0b6b3a764000081026001540160018190555050565b600080339050600360008273ffffffffffffffffffffffffffffffffffffffff1673ffffffffffffffffffffffffffffffffffffffff1681526020019081526020016000206004015491505090565b600360003373ffffffffffffffffffffffffffffffffffffffff1673ffffffffffffffffffffffffffffffffffffffff16815260200190815260200160002060030160019054906101000a900473ffffffffffffffffffffffffffffffffffffffff1673ffffffffffffffffffffffffffffffffffffffff163373ffffffffffffffffffffffffffffffffffffffff1614610b0d57600080fd5b60003390506000600360008373ffffffffffffffffffffffffffffffffffffffff1673ffffffffffffffffffffffffffffffffffffffff1681526020019081526020016000206004015490506000600360008473ffffffffffffffffffffffffffffffffffffffff1673ffffffffffffffffffffffffffffffffffffffff168152602001908152602001600020600401819055503373ffffffffffffffffffffffffffffffffffffffff166108fc829081150290604051600060405180830381858888f19350505050158015610be7573d6000803e3d6000fd5b505050565b60015481565b60025481565b3373ffffffffffffffffffffffffffffffffffffffff166000809054906101000a900473ffffffffffffffffffffffffffffffffffffffff1673ffffffffffffffffffffffffffffffffffffffff1614610c5157600080fd5b60003390508073ffffffffffffffffffffffffffffffffffffffff16ff5b6000600254905090565b6040518060c00160405280600081526020016000815260200160008152602001600015158152602001600073ffffffffffffffffffffffffffffffffffffffff16815260200160008152509056fea265627a7a72315820568e0e5bf64a1e9987a1eae4f2b423c59780926adc7f337f0b3c678f56f893fb64736f6c634300050c0032",
  "source": "pragma solidity 0.5.12;\r\nimport \"./Ownable.sol\";\r\n\r\ncontract Gambling is Ownable{\r\n\r\n   struct Bet{\r\n       uint id;\r\n       uint size;\r\n       uint bol;\r\n       bool isWinning ;\r\n       address playerAddress;\r\n       uint userBallance;\r\n\r\n   }\r\n\r\n\r\n\r\n   function destToy()public onlyOwner{\r\n       address payable reciever = msg.sender;\r\n\r\n       selfdestruct(reciever);\r\n   }\r\n\r\n\r\n   uint public balance = 0;\r\n\r\n\r\n\r\n\r\n\r\n\r\n   uint public randommm=0;\r\n\r\n   event BetMade(uint size, uint bol);\r\n\r\n   mapping(address => Bet) private betting;\r\n\r\n   modifier onlyBetOwner(){\r\n      require(msg.sender == betting[msg.sender].playerAddress);\r\n      _;\r\n  }\r\n\r\n\r\n\r\n\r\n   function random() public view returns (uint){\r\n\r\n       return now %2;\r\n\r\n\r\n   }\r\n\r\n\r\n\r\n   function addBet(uint size, uint bol) public {\r\n       address creator = msg.sender;\r\n       require( size*1e18 <= betting[creator].userBallance);\r\n\r\n\r\n       Bet memory newBet;\r\n       newBet.size = size;\r\n       newBet.bol = bol;\r\n       newBet.playerAddress = msg.sender;\r\n\r\n\r\n\r\n\r\n\r\n       random();\r\n\r\n\r\n       if((random() == 0) && (bol == 0)){\r\n            newBet.isWinning=true;\r\n             newBet.userBallance = betting[creator].userBallance +  size*1e18*2;\r\n\r\n\r\n           balance -= size*1e18;\r\n         }else if((random() == 1) && (bol ==1)){\r\n           newBet.isWinning=true;\r\n            newBet.userBallance = betting[creator].userBallance +  size*1e18*2;\r\n            balance -= size*1e18;\r\n\r\n\r\n\r\n\r\n\r\n       }else {\r\n        uint256  zz = betting[msg.sender].userBallance;\r\n        newBet.userBallance = zz - size*1e18;\r\n        balance += size*1e18;\r\n        newBet.isWinning = false;\r\n       }\r\n\r\n       if(random() == 0){\r\n         randommm=0;\r\n           }else{\r\n             randommm=1;\r\n\r\n          }\r\n        betting[creator] = newBet;\r\n        emit BetMade(newBet.size, newBet.bol);\r\n\r\n   }\r\n\r\n\r\n   function widtraulall()public payable onlyOwner {\r\n       uint allmoney = balance;\r\n       balance = 0;\r\n       msg.sender.transfer(allmoney);\r\n\r\n   }\r\n\r\n   function witrowpublicmoney() public payable onlyBetOwner {\r\n       address creator = msg.sender;\r\n     uint publicBallace = betting[creator].userBallance;\r\n     betting[creator].userBallance = 0;\r\n      msg.sender.transfer(publicBallace);\r\n\r\n   }\r\n\r\n   function getMoney() public view returns (uint){\r\n     address creator = msg.sender;\r\n     return (betting[creator].userBallance);\r\n   }\r\n\r\n\r\n\r\n   function isItWinning() public  view returns(bool){\r\n   address creator = msg.sender;\r\n   return(betting[creator].isWinning);\r\n\r\n   }\r\n\r\n\r\n  function insertBallance(uint adding) public payable {\r\n\r\n      require(msg.value == adding*1e18);\r\n      if(msg.value != adding*1e18) revert();\r\n      balance = balance + (adding* 1e18);\r\n  }\r\n\r\n\r\n\r\n  function ContractBallanse()public view onlyOwner returns (uint){\r\n      return (address(this).balance);\r\n  }\r\n\r\n   function retRandom() public view returns(uint){\r\n     return (randommm);\r\n   }\r\n\r\n   function getAddress() public view returns (address) {\r\n     address creator = msg.sender;\r\n     return betting[creator].playerAddress;\r\n\r\n   }\r\n\r\n    function depositM(uint addedmoney) public payable  {\r\n        address creator = msg.sender;\r\n        require(msg.value == addedmoney*1e18 );\r\n\r\n        if(msg.value != addedmoney*1e18) revert();\r\n\r\n        betting[creator].userBallance = betting[creator].userBallance + addedmoney*1e18;\r\n    }\r\n\r\n}\r\n",
  "sourcePath": "C:/Users/angel/ethereum-course-advansed/Gambling Project/contracts/Gambling.sol",
  "compiler": {
    "name": "solc",
    "version": "0.5.12+commit.7709ece9.Emscripten.clang"
  },
  "schemaVersion": "3.0.16",
  "updatedAt": "2020-02-17T21:58:59.191Z",
  "devdoc": {
    "methods": {}
  },
  "userdoc": {
    "methods": {}
  }
}