{
  "contractName": "Gambling",
  "abi": [
    {
      "anonymous": false,
      "inputs": [
        {
          "indexed": false,
          "internalType": "uint256",
          "name": "size",
          "type": "uint256"
        },
        {
          "indexed": false,
          "internalType": "uint256",
          "name": "bol",
          "type": "uint256"
        }
      ],
      "name": "BetMade",
      "type": "event"
    },
    {
      "constant": true,
      "inputs": [],
      "name": "balance",
      "outputs": [
        {
          "internalType": "uint256",
          "name": "",
          "type": "uint256"
        }
      ],
      "payable": false,
      "stateMutability": "view",
      "type": "function"
    },
    {
      "constant": true,
      "inputs": [],
      "name": "randommm",
      "outputs": [
        {
          "internalType": "uint256",
          "name": "",
          "type": "uint256"
        }
      ],
      "payable": false,
      "stateMutability": "view",
      "type": "function"
    },
    {
      "constant": false,
      "inputs": [],
      "name": "destToy",
      "outputs": [],
      "payable": false,
      "stateMutability": "nonpayable",
      "type": "function"
    },
    {
      "constant": true,
      "inputs": [],
      "name": "random",
      "outputs": [
        {
          "internalType": "uint256",
          "name": "",
          "type": "uint256"
        }
      ],
      "payable": false,
      "stateMutability": "view",
      "type": "function"
    },
    {
      "constant": false,
      "inputs": [
        {
          "internalType": "uint256",
          "name": "size",
          "type": "uint256"
        },
        {
          "internalType": "uint256",
          "name": "bol",
          "type": "uint256"
        }
      ],
      "name": "addBet",
      "outputs": [],
      "payable": true,
      "stateMutability": "payable",
      "type": "function"
    },
    {
      "constant": false,
      "inputs": [],
      "name": "widtraulall",
      "outputs": [],
      "payable": true,
      "stateMutability": "payable",
      "type": "function"
    },
    {
      "constant": false,
      "inputs": [],
      "name": "witrowpublicmoney",
      "outputs": [],
      "payable": true,
      "stateMutability": "payable",
      "type": "function"
    },
    {
      "constant": true,
      "inputs": [],
      "name": "getMoney",
      "outputs": [
        {
          "internalType": "uint256",
          "name": "",
          "type": "uint256"
        }
      ],
      "payable": false,
      "stateMutability": "view",
      "type": "function"
    },
    {
      "constant": true,
      "inputs": [],
      "name": "isItWinning",
      "outputs": [
        {
          "internalType": "bool",
          "name": "",
          "type": "bool"
        }
      ],
      "payable": false,
      "stateMutability": "view",
      "type": "function"
    },
    {
      "constant": false,
      "inputs": [
        {
          "internalType": "uint256",
          "name": "adding",
          "type": "uint256"
        }
      ],
      "name": "insertBallance",
      "outputs": [],
      "payable": true,
      "stateMutability": "payable",
      "type": "function"
    },
    {
      "constant": true,
      "inputs": [],
      "name": "ContractBallanse",
      "outputs": [
        {
          "internalType": "uint256",
          "name": "",
          "type": "uint256"
        }
      ],
      "payable": false,
      "stateMutability": "view",
      "type": "function"
    },
    {
      "constant": true,
      "inputs": [],
      "name": "retRandom",
      "outputs": [
        {
          "internalType": "uint256",
          "name": "",
          "type": "uint256"
        }
      ],
      "payable": false,
      "stateMutability": "view",
      "type": "function"
    },
    {
      "constant": true,
      "inputs": [],
      "name": "getAddress",
      "outputs": [
        {
          "internalType": "address",
          "name": "",
          "type": "address"
        }
      ],
      "payable": false,
      "stateMutability": "view",
      "type": "function"
    }
  ],
  "bytecode": "0x608060405260006001556000600255336000806101000a81548173ffffffffffffffffffffffffffffffffffffffff021916908373ffffffffffffffffffffffffffffffffffffffff160217905550610b9b8061005d6000396000f3fe6080604052600436106100c25760003560e01c806394f454061161007f578063b69ef8a811610059578063b69ef8a814610248578063d4479b5014610273578063e095615a1461029e578063f9707a29146102b5576100c2565b806394f45406146101e557806398e1b41014610213578063b1b56fc61461023e576100c2565b806323158cae146100c7578063332207f3146100ff57806338cc483114610109578063399d2671146101605780634c2fa8ad1461018f5780635ec01e4d146101ba575b600080fd5b6100fd600480360360408110156100dd57600080fd5b8101908080359060200190929190803590602001909291905050506102e0565b005b61010761061f565b005b34801561011557600080fd5b5061011e6106d1565b604051808273ffffffffffffffffffffffffffffffffffffffff1673ffffffffffffffffffffffffffffffffffffffff16815260200191505060405180910390f35b34801561016c57600080fd5b50610175610740565b604051808215151515815260200191505060405180910390f35b34801561019b57600080fd5b506101a461079c565b6040518082815260200191505060405180910390f35b3480156101c657600080fd5b506101cf610814565b6040518082815260200191505060405180910390f35b610211600480360360208110156101fb57600080fd5b8101908080359060200190929190505050610826565b005b34801561021f57600080fd5b506102286108c3565b6040518082815260200191505060405180910390f35b610246610912565b005b34801561025457600080fd5b5061025d610a8b565b6040518082815260200191505060405180910390f35b34801561027f57600080fd5b50610288610a91565b6040518082815260200191505060405180910390f35b3480156102aa57600080fd5b506102b3610a97565b005b3480156102c157600080fd5b506102ca610b0e565b6040518082815260200191505060405180910390f35b813410156102ed57600080fd5b60003390506102fa610b18565b838160200181815250508281604001818152505033816080019073ffffffffffffffffffffffffffffffffffffffff16908173ffffffffffffffffffffffffffffffffffffffff168152505061034e610814565b506000610359610814565b1480156103665750600083145b156103e257600181606001901515908115158152505060023402600360008473ffffffffffffffffffffffffffffffffffffffff1673ffffffffffffffffffffffffffffffffffffffff16815260200190815260200160002060040154018160a0018181525050346001600082825403925050819055506104da565b60016103ec610814565b1480156103f95750600183145b1561046557600181606001901515908115158152505060023402600360008473ffffffffffffffffffffffffffffffffffffffff1673ffffffffffffffffffffffffffffffffffffffff16815260200190815260200160002060040154018160a00181815250506104d9565b6000600360003373ffffffffffffffffffffffffffffffffffffffff1673ffffffffffffffffffffffffffffffffffffffff168152602001908152602001600020600401549050808260a0018181525050346001600082825401925050819055506000826060019015159081151581525050505b5b60006104e4610814565b14156104f7576000600281905550610500565b60016002819055505b80600360008473ffffffffffffffffffffffffffffffffffffffff1673ffffffffffffffffffffffffffffffffffffffff16815260200190815260200160002060008201518160000155602082015181600101556040820151816002015560608201518160030160006101000a81548160ff02191690831515021790555060808201518160030160016101000a81548173ffffffffffffffffffffffffffffffffffffffff021916908373ffffffffffffffffffffffffffffffffffffffff16021790555060a082015181600401559050507f28d81d852791096da3eb29e09e6a488bb0c92df6f307d77d3a61ed00a66aace681602001518260400151604051808381526020018281526020019250505060405180910390a150505050565b3373ffffffffffffffffffffffffffffffffffffffff166000809054906101000a900473ffffffffffffffffffffffffffffffffffffffff1673ffffffffffffffffffffffffffffffffffffffff161461067857600080fd5b6000600154905060006001819055503373ffffffffffffffffffffffffffffffffffffffff166108fc829081150290604051600060405180830381858888f193505050501580156106cd573d6000803e3d6000fd5b5050565b600080339050600360008273ffffffffffffffffffffffffffffffffffffffff1673ffffffffffffffffffffffffffffffffffffffff16815260200190815260200160002060030160019054906101000a900473ffffffffffffffffffffffffffffffffffffffff1691505090565b600080339050600360008273ffffffffffffffffffffffffffffffffffffffff1673ffffffffffffffffffffffffffffffffffffffff16815260200190815260200160002060030160009054906101000a900460ff1691505090565b60003373ffffffffffffffffffffffffffffffffffffffff166000809054906101000a900473ffffffffffffffffffffffffffffffffffffffff1673ffffffffffffffffffffffffffffffffffffffff16146107f757600080fd5b3073ffffffffffffffffffffffffffffffffffffffff1631905090565b60006002428161082057fe5b06905090565b3373ffffffffffffffffffffffffffffffffffffffff166000809054906101000a900473ffffffffffffffffffffffffffffffffffffffff1673ffffffffffffffffffffffffffffffffffffffff161461087f57600080fd5b670de0b6b3a76400008102341461089557600080fd5b670de0b6b3a7640000810234146108ab57600080fd5b670de0b6b3a764000081026001540160018190555050565b600080339050600360008273ffffffffffffffffffffffffffffffffffffffff1673ffffffffffffffffffffffffffffffffffffffff1681526020019081526020016000206004015491505090565b600360003373ffffffffffffffffffffffffffffffffffffffff1673ffffffffffffffffffffffffffffffffffffffff16815260200190815260200160002060030160019054906101000a900473ffffffffffffffffffffffffffffffffffffffff1673ffffffffffffffffffffffffffffffffffffffff163373ffffffffffffffffffffffffffffffffffffffff16146109ac57600080fd5b60003390506000600360008373ffffffffffffffffffffffffffffffffffffffff1673ffffffffffffffffffffffffffffffffffffffff1681526020019081526020016000206004015490506000600360008473ffffffffffffffffffffffffffffffffffffffff1673ffffffffffffffffffffffffffffffffffffffff168152602001908152602001600020600401819055503373ffffffffffffffffffffffffffffffffffffffff166108fc829081150290604051600060405180830381858888f19350505050158015610a86573d6000803e3d6000fd5b505050565b60015481565b60025481565b3373ffffffffffffffffffffffffffffffffffffffff166000809054906101000a900473ffffffffffffffffffffffffffffffffffffffff1673ffffffffffffffffffffffffffffffffffffffff1614610af057600080fd5b60003390508073ffffffffffffffffffffffffffffffffffffffff16ff5b6000600254905090565b6040518060c00160405280600081526020016000815260200160008152602001600015158152602001600073ffffffffffffffffffffffffffffffffffffffff16815260200160008152509056fea265627a7a723158207c5ae0ed33dd7fd4815934e3ba8a814cdedb1ce048beaca20ce991b28413031e64736f6c634300050c0032",
  "source": "pragma solidity 0.5.12;\r\nimport \"./Ownable.sol\";\r\n\r\ncontract Gambling is Ownable{\r\n\r\n   struct Bet{\r\n       uint id;\r\n       uint size;\r\n       uint bol;\r\n       bool isWinning ;\r\n       address playerAddress;\r\n       uint userBallance;\r\n\r\n   }\r\n\r\n\r\n\r\n   function destToy()public onlyOwner{\r\n       address payable reciever = msg.sender;\r\n\r\n       selfdestruct(reciever);\r\n   }\r\n\r\n\r\n   uint public balance = 0;\r\n\r\n\r\n\r\n\r\n\r\n\r\nuint public randommm=0;\r\n\r\nevent BetMade(uint size, uint bol);\r\n\r\n   mapping(address => Bet) private betting;\r\n\r\n   modifier onlyBetOwner(){\r\n      require(msg.sender == betting[msg.sender].playerAddress);\r\n      _;\r\n  }\r\n\r\n\r\n\r\n\r\n   function random() public view returns (uint){\r\n\r\n       return now %2;\r\n\r\n\r\n   }\r\n\r\n\r\n\r\n   function addBet(uint size, uint bol) public payable{\r\n       require(msg.value >= size);\r\n\r\n       address creator = msg.sender;\r\n       Bet memory newBet;\r\n       newBet.size = size;\r\n       newBet.bol = bol;\r\n       newBet.playerAddress = msg.sender;\r\n\r\n\r\n\r\n\r\n\r\n       random();\r\n\r\n\r\n       if((random() == 0) && (bol == 0)){\r\n            newBet.isWinning=true;\r\n             newBet.userBallance = betting[creator].userBallance +  msg.value*2;\r\n\r\n\r\n           balance -= msg.value;\r\n         }else if((random() == 1) && (bol ==1)){\r\n           newBet.isWinning=true;\r\n            newBet.userBallance = betting[creator].userBallance +  msg.value*2;\r\n\r\n\r\n\r\n\r\n\r\n       }else {\r\n        uint256  zz = betting[msg.sender].userBallance;\r\n        newBet.userBallance = zz;\r\n        balance += msg.value;\r\n        newBet.isWinning = false;\r\n       }\r\n\r\n       if(random() == 0){\r\n         randommm=0;\r\n           }else{\r\n             randommm=1;\r\n\r\n          }\r\n        betting[creator] = newBet;\r\n        emit BetMade(newBet.size, newBet.bol);\r\n\r\n   }\r\n\r\n\r\n   function widtraulall()public payable onlyOwner {\r\n       uint allmoney = balance;\r\n       balance = 0;\r\n       msg.sender.transfer(allmoney);\r\n\r\n   }\r\n\r\n   function witrowpublicmoney() public payable onlyBetOwner {\r\n       address creator = msg.sender;\r\n     uint publicBallace = betting[creator].userBallance;\r\n     betting[creator].userBallance = 0;\r\n      msg.sender.transfer(publicBallace);\r\n\r\n   }\r\n\r\n   function getMoney() public view returns (uint){\r\n     address creator = msg.sender;\r\n     return (betting[creator].userBallance);\r\n   }\r\n\r\n\r\n\r\n   function isItWinning() public  view returns(bool){\r\n   address creator = msg.sender;\r\n   return(betting[creator].isWinning);\r\n\r\n   }\r\n\r\n\r\n  function insertBallance(uint adding) public payable onlyOwner{\r\n\r\n      require(msg.value == adding*1e18);\r\n      if(msg.value != adding*1e18) revert();\r\n      balance = balance + (adding* 1e18);\r\n  }\r\n\r\n\r\n\r\n  function ContractBallanse()public view onlyOwner returns (uint){\r\n      return (address(this).balance);\r\n  }\r\n\r\n   function retRandom() public view returns(uint){\r\n     return (randommm);\r\n   }\r\n\r\n   function getAddress() public view returns (address) {\r\n     address creator = msg.sender;\r\n     return betting[creator].playerAddress;\r\n\r\n   }\r\n\r\n\r\n}\r\n",
  "sourcePath": "C:/Users/angel/ethereum-course-advansed/Gambling Project/contracts/Gambling.sol",
  "compiler": {
    "name": "solc",
    "version": "0.5.12+commit.7709ece9.Emscripten.clang"
  },
  "schemaVersion": "3.0.16",
  "updatedAt": "2020-02-16T18:48:19.912Z",
  "devdoc": {
    "methods": {}
  },
  "userdoc": {
    "methods": {}
  }
}