{
  "contractName": "Gambling",
  "abi": [
    {
      "anonymous": false,
      "inputs": [
        {
          "indexed": false,
          "internalType": "uint256",
          "name": "size",
          "type": "uint256"
        },
        {
          "indexed": false,
          "internalType": "uint256",
          "name": "bol",
          "type": "uint256"
        }
      ],
      "name": "BetMade",
      "type": "event"
    },
    {
      "constant": true,
      "inputs": [],
      "name": "balance",
      "outputs": [
        {
          "internalType": "uint256",
          "name": "",
          "type": "uint256"
        }
      ],
      "payable": false,
      "stateMutability": "view",
      "type": "function"
    },
    {
      "constant": true,
      "inputs": [],
      "name": "randommm",
      "outputs": [
        {
          "internalType": "uint256",
          "name": "",
          "type": "uint256"
        }
      ],
      "payable": false,
      "stateMutability": "view",
      "type": "function"
    },
    {
      "constant": false,
      "inputs": [],
      "name": "destToy",
      "outputs": [],
      "payable": false,
      "stateMutability": "nonpayable",
      "type": "function"
    },
    {
      "constant": true,
      "inputs": [],
      "name": "random",
      "outputs": [
        {
          "internalType": "uint256",
          "name": "",
          "type": "uint256"
        }
      ],
      "payable": false,
      "stateMutability": "view",
      "type": "function"
    },
    {
      "constant": false,
      "inputs": [
        {
          "internalType": "uint256",
          "name": "size",
          "type": "uint256"
        },
        {
          "internalType": "uint256",
          "name": "bol",
          "type": "uint256"
        }
      ],
      "name": "addBet",
      "outputs": [],
      "payable": false,
      "stateMutability": "nonpayable",
      "type": "function"
    },
    {
      "constant": false,
      "inputs": [],
      "name": "widtraulall",
      "outputs": [],
      "payable": true,
      "stateMutability": "payable",
      "type": "function"
    },
    {
      "constant": false,
      "inputs": [],
      "name": "witrowpublicmoney",
      "outputs": [],
      "payable": true,
      "stateMutability": "payable",
      "type": "function"
    },
    {
      "constant": true,
      "inputs": [],
      "name": "getMoney",
      "outputs": [
        {
          "internalType": "uint256",
          "name": "",
          "type": "uint256"
        }
      ],
      "payable": false,
      "stateMutability": "view",
      "type": "function"
    },
    {
      "constant": true,
      "inputs": [],
      "name": "isItWinning",
      "outputs": [
        {
          "internalType": "bool",
          "name": "",
          "type": "bool"
        }
      ],
      "payable": false,
      "stateMutability": "view",
      "type": "function"
    },
    {
      "constant": false,
      "inputs": [
        {
          "internalType": "uint256",
          "name": "adding",
          "type": "uint256"
        }
      ],
      "name": "insertBallance",
      "outputs": [],
      "payable": true,
      "stateMutability": "payable",
      "type": "function"
    },
    {
      "constant": true,
      "inputs": [],
      "name": "ContractBallanse",
      "outputs": [
        {
          "internalType": "uint256",
          "name": "",
          "type": "uint256"
        }
      ],
      "payable": false,
      "stateMutability": "view",
      "type": "function"
    },
    {
      "constant": true,
      "inputs": [],
      "name": "retRandom",
      "outputs": [
        {
          "internalType": "uint256",
          "name": "",
          "type": "uint256"
        }
      ],
      "payable": false,
      "stateMutability": "view",
      "type": "function"
    },
    {
      "constant": true,
      "inputs": [],
      "name": "getAddress",
      "outputs": [
        {
          "internalType": "address",
          "name": "",
          "type": "address"
        }
      ],
      "payable": false,
      "stateMutability": "view",
      "type": "function"
    },
    {
      "constant": false,
      "inputs": [
        {
          "internalType": "uint256",
          "name": "addedmoney",
          "type": "uint256"
        }
      ],
      "name": "depositM",
      "outputs": [],
      "payable": true,
      "stateMutability": "payable",
      "type": "function"
    },
    {
      "constant": false,
      "inputs": [],
      "name": "withdrawl50",
      "outputs": [],
      "payable": false,
      "stateMutability": "nonpayable",
      "type": "function"
    }
  ],
  "bytecode": "0x608060405260006001556000600255336000806101000a81548173ffffffffffffffffffffffffffffffffffffffff021916908373ffffffffffffffffffffffffffffffffffffffff160217905550610e378061005d6000396000f3fe6080604052600436106100e85760003560e01c80635ec01e4d1161008a578063b69ef8a811610059578063b69ef8a8146102c0578063d4479b50146102eb578063e095615a14610316578063f9707a291461032d576100e8565b80635ec01e4d1461023257806394f454061461025d57806398e1b4101461028b578063b1b56fc6146102b6576100e8565b8063332207f3116100c6578063332207f31461017757806338cc483114610181578063399d2671146101d85780634c2fa8ad14610207576100e8565b80630a88fb4b146100ed5780630e2295531461010457806323158cae14610132575b600080fd5b3480156100f957600080fd5b50610102610358565b005b6101306004803603602081101561011a57600080fd5b810190808035906020019092919050505061041f565b005b34801561013e57600080fd5b506101756004803603604081101561015557600080fd5b8101908080359060200190929190803590602001909291905050506104e9565b005b61017f6108bb565b005b34801561018d57600080fd5b5061019661096d565b604051808273ffffffffffffffffffffffffffffffffffffffff1673ffffffffffffffffffffffffffffffffffffffff16815260200191505060405180910390f35b3480156101e457600080fd5b506101ed6109dc565b604051808215151515815260200191505060405180910390f35b34801561021357600080fd5b5061021c610a38565b6040518082815260200191505060405180910390f35b34801561023e57600080fd5b50610247610ab0565b6040518082815260200191505060405180910390f35b6102896004803603602081101561027357600080fd5b8101908080359060200190929190505050610ac2565b005b34801561029757600080fd5b506102a0610b5f565b6040518082815260200191505060405180910390f35b6102be610bae565b005b3480156102cc57600080fd5b506102d5610d27565b6040518082815260200191505060405180910390f35b3480156102f757600080fd5b50610300610d2d565b6040518082815260200191505060405180910390f35b34801561032257600080fd5b5061032b610d33565b005b34801561033957600080fd5b50610342610daa565b6040518082815260200191505060405180910390f35b3373ffffffffffffffffffffffffffffffffffffffff166000809054906101000a900473ffffffffffffffffffffffffffffffffffffffff1673ffffffffffffffffffffffffffffffffffffffff16146103b157600080fd5b60006002600154816103bf57fe5b0490506002600154816103ce57fe5b046001819055503373ffffffffffffffffffffffffffffffffffffffff166108fc829081150290604051600060405180830381858888f1935050505015801561041b573d6000803e3d6000fd5b5050565b6000339050670de0b6b3a76400008202341461043a57600080fd5b670de0b6b3a76400008202341461045057600080fd5b670de0b6b3a76400008202600360008373ffffffffffffffffffffffffffffffffffffffff1673ffffffffffffffffffffffffffffffffffffffff1681526020019081526020016000206004015401600360008373ffffffffffffffffffffffffffffffffffffffff1673ffffffffffffffffffffffffffffffffffffffff168152602001908152602001600020600401819055505050565b6000339050600360008273ffffffffffffffffffffffffffffffffffffffff1673ffffffffffffffffffffffffffffffffffffffff16815260200190815260200160002060040154662386f26fc100008402111561054657600080fd5b61054e610db4565b838160200181815250508281604001818152505033816080019073ffffffffffffffffffffffffffffffffffffffff16908173ffffffffffffffffffffffffffffffffffffffff16815250506105a2610ab0565b5060006105ad610ab0565b1480156105ba5750600083145b156106485760018160600190151590811515815250506002662386f26fc10000850202600360008473ffffffffffffffffffffffffffffffffffffffff1673ffffffffffffffffffffffffffffffffffffffff16815260200190815260200160002060040154018160a0018181525050662386f26fc100008402600160008282540392505081905550610776565b6001610652610ab0565b14801561065f5750600183145b156106ed5760018160600190151590811515815250506002662386f26fc10000850202600360008473ffffffffffffffffffffffffffffffffffffffff1673ffffffffffffffffffffffffffffffffffffffff16815260200190815260200160002060040154018160a0018181525050662386f26fc100008402600160008282540392505081905550610775565b6000600360003373ffffffffffffffffffffffffffffffffffffffff1673ffffffffffffffffffffffffffffffffffffffff168152602001908152602001600020600401549050662386f26fc10000850281038260a0018181525050662386f26fc1000085026001600082825401925050819055506000826060019015159081151581525050505b5b6000610780610ab0565b141561079357600060028190555061079c565b60016002819055505b80600360008473ffffffffffffffffffffffffffffffffffffffff1673ffffffffffffffffffffffffffffffffffffffff16815260200190815260200160002060008201518160000155602082015181600101556040820151816002015560608201518160030160006101000a81548160ff02191690831515021790555060808201518160030160016101000a81548173ffffffffffffffffffffffffffffffffffffffff021916908373ffffffffffffffffffffffffffffffffffffffff16021790555060a082015181600401559050507f28d81d852791096da3eb29e09e6a488bb0c92df6f307d77d3a61ed00a66aace681602001518260400151604051808381526020018281526020019250505060405180910390a150505050565b3373ffffffffffffffffffffffffffffffffffffffff166000809054906101000a900473ffffffffffffffffffffffffffffffffffffffff1673ffffffffffffffffffffffffffffffffffffffff161461091457600080fd5b6000600154905060006001819055503373ffffffffffffffffffffffffffffffffffffffff166108fc829081150290604051600060405180830381858888f19350505050158015610969573d6000803e3d6000fd5b5050565b600080339050600360008273ffffffffffffffffffffffffffffffffffffffff1673ffffffffffffffffffffffffffffffffffffffff16815260200190815260200160002060030160019054906101000a900473ffffffffffffffffffffffffffffffffffffffff1691505090565b600080339050600360008273ffffffffffffffffffffffffffffffffffffffff1673ffffffffffffffffffffffffffffffffffffffff16815260200190815260200160002060030160009054906101000a900460ff1691505090565b60003373ffffffffffffffffffffffffffffffffffffffff166000809054906101000a900473ffffffffffffffffffffffffffffffffffffffff1673ffffffffffffffffffffffffffffffffffffffff1614610a9357600080fd5b3073ffffffffffffffffffffffffffffffffffffffff1631905090565b600060024281610abc57fe5b06905090565b3373ffffffffffffffffffffffffffffffffffffffff166000809054906101000a900473ffffffffffffffffffffffffffffffffffffffff1673ffffffffffffffffffffffffffffffffffffffff1614610b1b57600080fd5b670de0b6b3a764000081023414610b3157600080fd5b670de0b6b3a764000081023414610b4757600080fd5b670de0b6b3a764000081026001540160018190555050565b600080339050600360008273ffffffffffffffffffffffffffffffffffffffff1673ffffffffffffffffffffffffffffffffffffffff1681526020019081526020016000206004015491505090565b600360003373ffffffffffffffffffffffffffffffffffffffff1673ffffffffffffffffffffffffffffffffffffffff16815260200190815260200160002060030160019054906101000a900473ffffffffffffffffffffffffffffffffffffffff1673ffffffffffffffffffffffffffffffffffffffff163373ffffffffffffffffffffffffffffffffffffffff1614610c4857600080fd5b60003390506000600360008373ffffffffffffffffffffffffffffffffffffffff1673ffffffffffffffffffffffffffffffffffffffff1681526020019081526020016000206004015490506000600360008473ffffffffffffffffffffffffffffffffffffffff1673ffffffffffffffffffffffffffffffffffffffff168152602001908152602001600020600401819055503373ffffffffffffffffffffffffffffffffffffffff166108fc829081150290604051600060405180830381858888f19350505050158015610d22573d6000803e3d6000fd5b505050565b60015481565b60025481565b3373ffffffffffffffffffffffffffffffffffffffff166000809054906101000a900473ffffffffffffffffffffffffffffffffffffffff1673ffffffffffffffffffffffffffffffffffffffff1614610d8c57600080fd5b60003390508073ffffffffffffffffffffffffffffffffffffffff16ff5b6000600254905090565b6040518060c00160405280600081526020016000815260200160008152602001600015158152602001600073ffffffffffffffffffffffffffffffffffffffff16815260200160008152509056fea265627a7a7231582008fa6a1eab5b214b59899d0d9177a5739c4008bcaabe53a273f85faa7269679f64736f6c634300050c0032",
  "source": "pragma solidity 0.5.12;\r\nimport \"./Ownable.sol\";\r\n\r\ncontract Gambling is Ownable{\r\n\r\n   struct Bet{\r\n       uint id;\r\n       uint size;\r\n       uint bol;\r\n       bool isWinning ;\r\n       address playerAddress;\r\n       uint userBallance;\r\n\r\n   }\r\n\r\n\r\n\r\n   function destToy()public onlyOwner{\r\n       address payable reciever = msg.sender;\r\n\r\n       selfdestruct(reciever);\r\n   }\r\n\r\n\r\n   uint public balance =0;\r\n\r\n\r\n\r\n\r\n\r\n\r\n   uint public randommm=0;\r\n\r\n   event BetMade(uint size, uint bol);\r\n\r\n   mapping(address => Bet) private betting;\r\n\r\n   modifier onlyBetOwner(){\r\n      require(msg.sender == betting[msg.sender].playerAddress);\r\n      _;\r\n  }\r\n\r\n\r\n\r\n\r\n   function random() public view returns (uint){\r\n\r\n       return now %2;\r\n\r\n\r\n   }\r\n\r\n\r\n\r\n   function addBet(uint size, uint bol) public {\r\n       address creator = msg.sender;\r\n       require( size*1e16 <= betting[creator].userBallance);\r\n\r\n\r\n       Bet memory newBet;\r\n       newBet.size = size;\r\n       newBet.bol = bol;\r\n       newBet.playerAddress = msg.sender;\r\n\r\n\r\n\r\n\r\n\r\n       random();\r\n\r\n\r\n       if((random() == 0) && (bol == 0)){\r\n            newBet.isWinning=true;\r\n             newBet.userBallance = betting[creator].userBallance +  size*1e16*2;\r\n\r\n\r\n           balance -= size*1e16;\r\n         }else if((random() == 1) && (bol ==1)){\r\n           newBet.isWinning=true;\r\n            newBet.userBallance = betting[creator].userBallance +  size*1e16*2;\r\n            balance -= size*1e16;\r\n\r\n\r\n\r\n\r\n\r\n       }else {\r\n        uint256  zz = betting[msg.sender].userBallance;\r\n        newBet.userBallance = zz - size*1e16;\r\n        balance += size*1e16;\r\n        newBet.isWinning = false;\r\n       }\r\n\r\n       if(random() == 0){\r\n         randommm=0;\r\n           }else{\r\n             randommm=1;\r\n\r\n          }\r\n        betting[creator] = newBet;\r\n        emit BetMade(newBet.size, newBet.bol);\r\n\r\n   }\r\n\r\n\r\n   function widtraulall()public payable onlyOwner {\r\n       uint allmoney = balance;\r\n       balance = 0;\r\n       msg.sender.transfer(allmoney);\r\n\r\n   }\r\n\r\n   function witrowpublicmoney() public payable onlyBetOwner {\r\n       address creator = msg.sender;\r\n     uint publicBallace = betting[creator].userBallance;\r\n     betting[creator].userBallance = 0;\r\n      msg.sender.transfer(publicBallace);\r\n\r\n   }\r\n\r\n   function getMoney() public view returns (uint){\r\n     address creator = msg.sender;\r\n     return (betting[creator].userBallance);\r\n   }\r\n\r\n\r\n\r\n   function isItWinning() public  view returns(bool){\r\n   address creator = msg.sender;\r\n   return(betting[creator].isWinning);\r\n\r\n   }\r\n\r\n\r\n  function insertBallance(uint adding) public payable onlyOwner{\r\n\r\n      require(msg.value == adding*1e18);\r\n      if(msg.value != adding*1e18) revert();\r\n      balance = balance + (adding* 1e18);\r\n  }\r\n\r\n\r\n\r\n  function ContractBallanse()public view onlyOwner returns (uint){\r\n      return (address(this).balance);\r\n  }\r\n\r\n   function retRandom() public view returns(uint){\r\n     return (randommm);\r\n   }\r\n\r\n   function getAddress() public view returns (address) {\r\n     address creator = msg.sender;\r\n     return betting[creator].playerAddress;\r\n\r\n   }\r\n\r\n    function depositM(uint addedmoney) public payable  {\r\n        address creator = msg.sender;\r\n        require(msg.value == addedmoney*1e18 );\r\n\r\n        if(msg.value != addedmoney*1e18) revert();\r\n\r\n        betting[creator].userBallance = betting[creator].userBallance + addedmoney*1e18;\r\n    }\r\n\r\n    function withdrawl50() public onlyOwner{\r\n      uint allmoney = balance /2;\r\n      balance = balance /2;\r\n      msg.sender.transfer(allmoney);\r\n    }\r\n\r\n}\r\n",
  "sourcePath": "C:/Users/angel/ethereum-course-advansed/Gambling Project/contracts/Gambling.sol",
  "compiler": {
    "name": "solc",
    "version": "0.5.12+commit.7709ece9.Emscripten.clang"
  },
  "schemaVersion": "3.0.16",
  "updatedAt": "2020-02-18T10:47:18.915Z",
  "devdoc": {
    "methods": {}
  },
  "userdoc": {
    "methods": {}
  }
}